:020000022000DC
:107000000000042049830300898303008B8303006D
:107010008D8303008F830300918303000000000031
:10702000000000000000000000000000C582030016
:107030009583030000000000E582030099830300AC
:10704000A98503009B8303009B8303009B830300AC
:107050009B8303009B8303009B8303009B830300AC
:107060009B8303009B8303009B8303009B8303009C
:107070009B8303009B8303009B8303009B8303008C
:107080009B830300158003009B8303009B83030005
:107090009B8303009B83030061A902009B83030081
:1070A0009B8303009B8303009B8303009B8303005C
:1070B0009B8303009B83030000000000000000008E
:1070C0009B8303009B8303009B8303009B8303003C
:1070D0009B8303009B8303009B83030091BC0200FE
:1070E0009B8303009B8303009B830300000000003D
:1070F000000000009B830300000000009B8303004E
:10710000000000000000000000000000000000007F
:10711000000000000000000000000000000000006F
:10712000000000000000000000000000000000005F
:10713000000000000000000000000000000000004F
:10714000000000000000000000000000000000003F
:10715000000000000000000000000000000000002F
:10716000000000000000000000000000000000001F
:10717000000000000000000000000000000000000F
:1071800000000000000000000000000000000000FF
:1071900000000000000000000000000000000000EF
:1071A00000000000000000000000000000000000DF
:1071B00000000000000000000000000000000000CF
:1071C00000000000000000000000000000000000BF
:1071D00000000000000000000000000000000000AF
:1071E000000000000000000000000000000000009F
:1071F000000000000000000000000000000000008F
:10720000F1EE103A43F08073E1EE103A704700BFA0
:1072100010B5054C237833B9044B13B10448AFF3D0
:1072200000800123237010BD746300200000000063
:10723000DC44040008B5034B1BB103490348AFF31A
:10724000008008BD0000000078630020DC440400DA
:10725000154B002B08BF134B9D46A3F5803A002128
:107260008B460F461348144A121A17F085F80F4B35
:10727000002B00D098470E4B002B00D098470020E1
:10728000002104000D000D48002802D00C48AFF387
:10729000008017F007F82000290011F0ADF816F073
:1072A000DBFF00BF00000800000004200000000019
:1072B00000000000746300201C9700200000000004
:1072C00000000000F8B52A4D2A492B4801242C70F3
:1072D0000EF050FC294B1B7893BB03F0FF062B7874
:1072E00003F0FF07ABB9264D2B78012B10D02146B8
:1072F0000B2011F0D9FE21460D2011F0D5FE2146BC
:107300000C2011F0D1FE39460D2011F0CDFE2C706D
:10731000F8BD1B4D2B78022BFAD021460B2011F023
:10732000C3FE21460D2011F0BFFE21460C2011F0B6
:10733000BBFE022431460C2011F0B6FE2C70E7E7AC
:107340000F4D2B78032BE3D021460B2011F0ACFE20
:1073500021460D2011F0A8FE21460C2011F0A4FEBC
:10736000032400210B2011F09FFE2C70D0E700BFFA
:1073700094630020C81704001C6D00200A640020DC
:1073800095630020704700BF10B500202DED048BE1
:1073900011F0D8FD0346012008EE103A11F0D2FD9D
:1073A00007EE900A0220F8EE678A11F0CBFD9FED00
:1073B000229ADFED225ADFED226ADFED227A22499E
:1073C000224C234A06EE100AB8EE487A68EE898A03
:1073D00027EE257AB8EE466A68EEA65A26EE096AC6
:1073E00067EE277A66EE266AFCEEE77AFCEEE55A4F
:1073F000FCEEE66A17EE903A15EE900A9BB2088012
:1074000016EE901A0A2B238011800DD978EEC68AC9
:10741000104AC8EE877ABDEC048BFCEEE77A17EED3
:10742000903A9BB2138010BDBDEC048B094A4FF615
:10743000FF73138010BD00BF0A8E9E3C5F559637C8
:1074400000007A440024744990630020F063002017
:10745000FC6300209263002070B5224A2249234C2D
:107460002348244B1288098825881B8804882248D1
:1074700086B0ADF80C20ADF80E100A2203A9ADF8C5
:107480001050ADF81240ADF8143001F03DF91B4A30
:107490001B491C481C4B158812880E8809880488D3
:1074A00000888DF804501D881B888DF80660C2F393
:1074B0000722C1F30721C0F30720C3F307238DF888
:1074C00005208DF807108DF80900082201A90F4842
:1074D0008DF808408DF80B308DF80A5001F014F942
:1074E00006B070BD10640020F0630020906300209F
:1074F000FC63002092630020986300201264002047
:107500002C64002008640020FE630020306400200A
:1075100010B5394CFFF738FFFFF79EFF237863B9AA
:10752000364B1B7803F0FF01002B4AD0344B32223C
:107530000C2103201A8011F0D1FB23781BB92F4BAB
:107540001B78002B3CD02F492F480EF0C5FA2C4B4E
:107550002D4819880A220EF019FC2C492A480EF0F1
:10756000BBFA2B4B284819880A220EF00FFC294938
:1075700025480EF0B1FA284B234819880A220EF04C
:1075800005FC264920480EF0A7FA254B1E4819880D
:107590000A220EF0FBFB23491B480EF09DFA224BFA
:1075A000194819880A220EF0F1FB204916480EF0FE
:1075B00093FA23785BB9BDE8104013480EF0BABACD
:1075C00010BD0F4B0320198011F088FBB5E7184957
:1075D0000D480EF081FA174B0B4819880A2289B220
:1075E0000EF0D4FB144908480EF076FABDE81040BE
:1075F00005480EF09FBA00BF0A6400209463002083
:1076000010640020D81704001C6D0020E01704004F
:10761000F0630020E817040092630020F0170400D4
:1076200090630020FC170400FC630020081804008D
:107630000C1804002C64002010180400274B1B7841
:1076400070B5A3BB03F0FF05254B1B7803F0FF06C5
:10765000B3B9244C2378012B11D001210B2011F058
:1076600023FD01210D2011F01FFD01210C2011F03F
:107670001BFD31460D2011F017FD0123237070BD55
:10768000184C2378022BFAD001210B2011F00CFDAD
:1076900001210D2011F008FD01210C2011F004FD45
:1076A00029460C2011F000FD02232370E7E70D4C62
:1076B0002378032BE3D001210B2011F0F5FC0121ED
:1076C0000D2011F0F1FC01210C2011F0EDFC002146
:1076D0000B2011F0E9FC03232370D0E70A6400209B
:1076E000946300209563002070B50B4E0B4B0C4645
:1076F00000250B491D7030460EF0EEF9214630464C
:107700000A220EF013FB2946064800F089FBBDE86B
:107710007040FFF793BF00BF1C6D002094630020F2
:1077200014180400E46A0020072B35D9F8B5557801
:107730001478D67957799379117992F803C09078B3
:1077400044EA0524324D43EA06232C80314E324C64
:1077500041EA0722314F40EA0C20308022803B80F2
:1077600033889BB213B12B889BB2B3B92C4B2D4AF3
:107770002D492E4800240C7014801C8011F008FA4A
:107780002146032011F0AAFAFFF758FFBDE8F840A0
:10779000274928480EF0EEB970473388204A9BB23B
:1077A00013800EF015FB24491F4A03460B601F4847
:1077B0000123137011F0B8F9FFF740FF1F491D486E
:1077C0000EF08AF929881B480A2289B20EF0DEFAE7
:1077D0001B4918480EF080F9318816480A2289B2F0
:1077E0000EF0D4FA174913480EF076F921881148A3
:1077F0000A2289B20EF0CAFA13490E480EF06CF94B
:1078000039880C48BDE8F84089B20A220EF068BAFF
:10781000126400208864002008640020FE630020B9
:107820002C640020106400200A6400200064002002
:10783000581804001C6D00200C640020301804004F
:107840004018040048180400541804002DE9F843B7
:107850000EF0BEFADFF814813A4B3B4FD3F800E04C
:10786000B8F80050394C3988DFF804C1A0EB0E0697
:107870004FF47A72ADB2A4FB063402FB05F389B271
:107880009E42BCF8009002FB01F145D2B8F80020FE
:10789000DFF8C480A409121B92B22D4CA8F8002076
:1078A000B4F800800EEB03028E421FFA89F5A2EBBA
:1078B00000001FFA88F31CD23A8892B2CAB123881A
:1078C0009BB206FB03F3B3FBF1F39BB21F49214CC0
:1078D000C3EB8322A1FB0212C2F30F2240F2FF315D
:1078E0009142238028BF1146BDE8F843032011F0E0
:1078F000F5B94FF47A7202FB05F58542E6D9BCF87A
:10790000002092B2002AE1D023889BB200FB03F34F
:10791000B3FBF5F39BB2D9E70F4B0E4A0F49104862
:1079200000240C7014801C8011F032F921460320D1
:1079300011F0D4F9FFF782FEBDE8F84309490A487F
:107940000EF018B90C64002008640020D34D6210BA
:1079500012640020106400202C6400200A640020BF
:1079600000640020681804001C6D0020886400205A
:10797000FE630020024B1B7803B97047FFF766BF18
:107980000A64002030B54F4883B04FF4E13104461B
:1079900040F6B73503F02CFE03E00EF019FAA842CA
:1079A00004D8204603F03CFE0028F6D0464945485E
:1079B0000EF0E0F80A2011F071F90121032011F016
:1079C000EFFA0021032011F089F901210B2011F0B9
:1079D000E7FA01210D2011F0E3FA01210C2011F04A
:1079E000DFFA01210B2011F05FFB01210D2011F0C6
:1079F0005BFB01210C2011F057FB0A2011F09CFACF
:107A000000220121314802F055FD3048002102F0EA
:107A10005DFF6FF003012D4802F00AFF2C492B484F
:107A200002F0DEFE2B49294801F042FB2A49274893
:107A300001F040FB294802F017FA294800F060FBEA
:107A400001222849284800F051FE274800F058FB41
:107A50000621264800F056F92049244800F00EF986
:107A6000224800F021F94FF4C8622048A02100F01C
:107A700077F91E481E2100F071F900211B4800F023
:107A8000CFF9012400210D2011F00EFB184A1948EE
:107A900000940023142111F02FF8174A174800947E
:107AA00000234FF4FA7111F027F8144811F03CF854
:107AB000134904480EF05EF803B0BDE8304010F002
:107AC000C9BC00BF1C6D00207C180400A464002009
:107AD00098180400C5720200E976020014640020C0
:107AE000986300202977020030640020E46A0020B7
:107AF000757902000064002011750200F463002013
:107B0000A018040010B5044B044640F8083B02F0EE
:107B1000E7F9204610BD00BF7C1904002DE9F043B1
:107B2000DFF8CC90284C294F294DDFF8C880294E2A
:107B300087B0484610F0D8FF22462749484616F03D
:107B400007F8384610F0D0FF22462349384615F092
:107B5000FFFF224902A802F0D9F902A9284602F043
:107B60009FF902A802F0BCF922461D49284615F0EB
:107B7000EFFF00271B491C4D02A802F0C7F90A239A
:107B800002A912224046009700F06EFD02A802F002
:107B9000A7F922463146404615F0DAFF134902A8FC
:107BA00002F0B4F902A908231A220097284600F02F
:107BB0005BFD02A802F094F922463146284615F0F2
:107BC000C7FF07B0BDE8F08300600020F463002029
:107BD00014640020CD800200998A0300C8180400B4
:107BE000057B0200F018040030640020181904001E
:107BF000006400209863002072DF704773DF7047D5
:107C000077DF704738B5054608460C4602F09EF906
:107C1000102803D080280ED0012038BDEB7FA28829
:107C20001B2B0EDCE9180320E85448704A80EB7FD8
:107C30000433EB77F0E7A368002BEDD0E97F0D2943
:107C400001DD002038BD6A181120685407215170E9
:107C500058681C689968DB68C2F80E30C2F80600E4
:107C6000C2F80240C2F80A10EB7F1233EB77012012
:107C700038BD00BF0022C2770270704730B5D1E92D
:107C8000042485B0CD68074B00936946CDE90224F2
:107C90000195FFF7B7FF0446684602F021F9204638
:107CA00005B030BD94190400F0B589B00646202215
:107CB0001348694602F0A8FDF37FC2181D2A0CDDA7
:107CC000C3F11D04E4B2E2181D2A4FF00005D8BF2D
:107CD000082705DD284609B0F0BD0446012509271F
:107CE000F218601CF05469465770901C224616F03A
:107CF0001BFBF27F023214442846F47709B0F0BD32
:107D0000A4640020C27F1C2A01DD0020704710B44B
:107D100003469C18022098540120A1706070DA7FFD
:107D20000332DA775DF8044B704700BF10B4084A9D
:107D3000084C094902620022C0E90A41C0E90C224C
:107D40005DF8044B0270C27742628263704700BFE5
:107D5000FF0101002000F40020001E00C1857047D3
:107D60000185818542857047F0B5154605EB850391
:107D7000274A89B0044603EB830300200E469B008C
:107D800011680290CDE90460ADF8143094F8213008
:107D90008DF80830CB07CDE90600039009D41D49C2
:107DA0001D4BC87FE77F988101201C6099609F80F0
:107DB0001060194902AA04F12000FFF71DFF10B15D
:107DC000002009B0F0BD94F820101448019102F091
:107DD00079FD019902460120FFF712FF0028EFD13B
:107DE00094F820000121FFF709FF0028E8D10B4893
:107DF00002F0C6FD628EA68595424FF0010094BF49
:107E0000521B921A628684F8230009B0F0BD00BFAD
:107E10008C640020206B002090640020A46400206B
:107E2000F0B5002361F30F032D4D044661F31F43AA
:107E300089B00363FA21284602F04CFDE68D2949FA
:107E4000278D0868049706EB860303EB8303002263
:107E50009B000592ADF8143094F8213002928DF811
:107E60000830C307CDE9062203920BD41E4BE27FF4
:107E700095F89B069A8005F27C6501221C609D6046
:107E800098810A60184902AA04F12000FFF7B4FEA5
:107E900010B1002009B0F0BD94F8201010480191F5
:107EA00002F010FD019902460120FFF7A9FE00280B
:107EB000EFD194F820000121FFF7A0FE0028E8D1BF
:107EC000074802F05DFD638EA7859E424FF00100DA
:107ED00094BF9B1BDB1A638684F8230009B0F0BDB6
:107EE000A46400208C6400209064002030B50B88CE
:107EF0008D88112B85B0044605D0262B33D0102B4E
:107F000025D005B030BD436AEB40DB07F9D52E48DC
:107F100001F0AEF80028F4D1636A94F8231001222E
:107F200002FA05F523EA050363620029E9D194F812
:107F30002230002BE5D0238E23486386FA2102F0FD
:107F4000C9FCE28D218D2046FFF70EFFD9E7CB7BE0
:107F5000012BD6D1426A03FA05F515430023456289
:107F600080F82330CDE70B7A012BCAD1002380F8AB
:107F700023304FF4FA71144802F0ACFC238E5BB14D
:107F8000658E95B1A36B0BB19847658E618D2A46BE
:107F90002046FFF7E9FEB4E7A36B03B19847618D74
:107FA00000222046FFF7E0FEABE7074802F0FCFCAA
:107FB000626B002AA5D0009503AB2946284603959D
:107FC00010F000FD9DE700BFA464002075DF70473E
:107FD00010B44FF010144FF448010022C0E90041E2
:107FE000C0E902225DF8044B704700BF014800F071
:107FF00045BE00BF946B0020F8B500250D4F2E46FE
:1080000001E0142D14D0A9B2384602F0A1FC0135CC
:1080100004460028F5D000F0DFFC0028F1D020460F
:1080200000F0E4FC022804BF0136F6B2142DEAD1B8
:108030003046F8BDA464002070B58E881B480C46FD
:1080400094B0314602F084FC23881A2B05D01F2BF4
:108050001CD0102B0FD014B070BD054600F0BEFC34
:108060000028F8D0284600F0BBFC0028F3D12846B1
:1080700000F01CFDEFE7694600F000FD0028EAD0A3
:108080006A4631460A4801F08BFBE4E754F8080FD2
:1080900061686B4603C33046BDF80030ADF802306E
:1080A0006946FFF793FF14B070BD00BFA4640020C1
:1080B000C4640020AADF7047ABDF7047ACDF7047B5
:1080C000ADDF7047AEDF7047B0DF704710B5044BCF
:1080D000044640F8043B01F003FF204610BD00BFFA
:1080E0004C19040010B5054B044640F8043B01F060
:1080F000F7FE204610F0C8F9204610BD4C190400C8
:1081000070B57B4B04461B68836196B0043001F068
:108110002DFF94F82E30A06913F0320208BF84F8C6
:108120002F2013F00C0308BF84F830300DF101024A
:10813000694601F0CBFE94F82F209DF80100150749
:108140000DD09DF8001002F00F0301F00F059D42C5
:108150004FEA12126DD243EA021284F82F2094F8EB
:10816000303019070BD003F00F0100F00F058D42DE
:108170004FEA131369D241EA031384F8303094F8BC
:108180002E1011F0300340F096800FAD0F93C5E92B
:108190000133C5E903338DF83C10AB610021ADF824
:1081A00009109DF80A10206A1493012363F3420119
:1081B0008DF808208DF80A1008B1037873BB94F885
:1081C000263013B104F12603129394F831200023D2
:1081D000D2070893079358BFE38AADF81C3004F127
:1081E000080004F12F01CDE9050154BF1846E08ACB
:1081F000ADF82000294604F13203E569099505AA86
:108200000020FFF757FF054628B994F8253043BBF7
:10821000237D002B64D0284616B070BD109016F058
:1082200086FF02AB80B2ADF84400ADF84600139370
:10823000C5E74FEA111101D191428CD30A462B4672
:1082400043EA021284F82F2089E74FEA101001D187
:10825000984290D30346294641EA031384F830300C
:108260008DE7ADF80D009DF80E2094F82F600C906E
:10827000012363F3420242F608118DF80E208DF8B7
:10828000123004AA0223ADF8101003A90D90ADF826
:108290003030ADF834300A9204F124030B910DF123
:1082A00002020AA98DF80C600E93FFF705FF002863
:1082B000AED00546AFE70F4B8DF805200FAD1B780C
:1082C0008DF80430022000230F938DF80600C5E9D5
:1082D0000133C5E90333AB618DF83C1001AB5DE7B9
:1082E0002146054800F086FE284616B070BD00BF46
:1082F000A064002040190400E46800202DE9F0414A
:108300000B888E88502B8AB00C46054609D0512B1D
:1083100004D18B79012B19D0022B26D00AB0BDE8ED
:10832000F081CB88428E9A4235D0EA8E9A42F5D1BE
:108330006B6D002BF2D095F84420648A920700F10F
:108340008A802246294630469847E7E7836C002B0F
:10835000E4D090F84420520701F108076CD43A4663
:10836000294630469847A379D6E7A27B042A46D00F
:10837000062A20D0012AD1D1EB6C002BCED095F863
:108380004420170704F1080400F1A580224629467D
:1083900030469847C2E7076D002FC6D090F84430AA
:1083A000D90768D404F11208238A42462946304688
:1083B000B847E388B9E7EA6B002AAFD0002202A9E8
:1083C0003046CDE90222CDE90422ADF80C208DF82B
:1083D0000830FFF779FE2C6D54B195F84430D8077A
:1083E00000F19280B5F84230EA6B30462946A0474A
:1083F000E86B0DF02FFD0023C5E90F338EE7E86B26
:10840000002878D0B5F84010278A628A07EB020C62
:1084100000234FF0020E8C45CDE90633CDE9083339
:108420008DF818E039DD40F20913ADF81C3006A9CB
:108430003046FFF749FE71E703211A46009106AB6B
:1084400008213846CDE90665089710F0BBFA0028E8
:1084500089D1AB6C83E7032000211A46009006AB5C
:108460000846CDE90665089410F0ACFA00287FF4C0
:1084700055AF6B6D65E7218A069604F11208042357
:1084800000933A46404606ABCDE90881079510F0C7
:1084900099FA00288DD12F6D86E79DF81EC0ADF8A2
:1084A0001C3004F114014CF001033844ADF82220D3
:1084B0008DF81E300991ADF8207015F035FF238A34
:1084C000618AB5F842200B449BB2934238BF1346F1
:1084D000A5F84230ABE703211A46009106AB0E2106
:1084E0002046CDE90665089410F06CFA00287FF468
:1084F00015AFEB6C4AE74FF480600DF091FC4FF440
:108500008061C5E90F017FE7E86BB5F84210069678
:1085100004230093224606ABCDE90750099110F0E1
:1085200051FA00287FF464AF2C6D5BE72DE9F04F22
:108530000F464FF6FF718F4289B0064615461C461E
:1085400026D0F18A96F82E308C4228BF0C46DB06E6
:1085500015D40DF1100B8C4228BF0C464FF00008CB
:10856000718EADF810405A464FF6FF700595ADF884
:108570001280FFF7A3FD404609B0BDE8F08F3948EF
:10858000394602F0CDF908B1F18E31B9F18AE0E750
:10859000344802F0D1F90746D3E7002002230DF159
:1085A000100BADF81200ADF810305A460DF10E0365
:1085B00038460593FFF784FD43F2014398424FD0BC
:1085C00000284AD19DF80E8008F00108B8F1000F8C
:1085D00046D02448394602F0BBF98246A0B300F0E9
:1085E00007FA033883B2002CC5D0CDF804804FF0D1
:1085F0000009984605E0BDF80E30E41AA4B21D4407
:1086000044B3504600F008FAA04503464246594696
:1086100028BF22463846BBB1ADF80E204FF001020C
:10862000738E8DF812200DF10E02CDE90625CDF8DE
:1086300013908DF81790ADF81030FFF743FD002828
:10864000D9D0504600F0F2F94FF00008404609B08A
:10865000BDE8F08FDDF804808DE700F00108B5E794
:10866000F18A78E7A464002070B480F82E201C4AB8
:1086700002601C4A42604A688260D1E902621A4C78
:108680009DF80C502478026114210022C18203213C
:10869000C0E90F22C0E91222C0E91422C66080F8A6
:1086A00044200275826102628284C0F82620C0F8EC
:1086B0002A20C26142864263028780F82F4080F8F8
:1086C000304080F8311045B19BB223B162F3000114
:1086D00080F83110C38270BC704770BCC382704791
:1086E0004C190400941904004019040090F8443017
:1086F000016562F3000380F84430704751F8322F6F
:10870000026049684160704710B490F82E4014F040
:10871000100407D013465DF8044B0A464FF6FF716C
:10872000FFF704BF20465DF8044B7047A1DF704798
:10873000A3DF7047A4DF704700238383704700BF27
:10874000006A00F0E3B800BF808B70472DE9F0416C
:108750000B88CE88382B86B00C46054606D0392BC0
:1087600066D0362B43D006B0BDE8F08100F1240777
:10877000002E36D10A8A3846314602F0A9F994F81B
:108780000C80B8F1010F2CD0B8F1040FEBD1286A9E
:1087900000F0BCF801465C4802F0DAF800F028F975
:1087A0002A8E053883B2934228BF1346002B00F06F
:1087B0009A80218AE289286AAC8B8DF80D600A4480
:1087C000E96A05918DF80C80ADF81230ADF81020F3
:1087D000ADF80E4000F09AF803A9FFF7A9FF0028B2
:1087E000C1D0384602F08CF906B0BDE8F081006ACD
:1087F00000F08CF80146444802F0AAF800F0F8F8BE
:1088000007466EBB05F12406E289304604F11001EB
:1088100002F05EF92B8E2BB1F81EE38980B201388D
:10882000834255DA304602F06BF906B0BDE8F081BC
:108830000B7B012B1AD0022B95D1836B002B92D08E
:1088400090F83C208F8892071FD401F11006E2892E
:1088500031462846984761893846FFF76BFF82E723
:1088600005F12407384602F04BF9BDE7436B002BB6
:108870003FF479AF90F83C20D10717D404F11006EB
:10888000E2893146284698476DE7C989039004F18B
:10889000100603201A46009003AB3046CDE9046170
:1088A00010F090F80028D6D1AB6BD0E7E1890390A7
:1088B00004F1100603201A46009003AB3046CDE9C0
:1088C000046110F07FF800287FF44DAF6B6BD7E7A1
:1088D000286A00F01BF86A8EA98B92B2FFF726FF78
:1088E00000289FD13FE7AA8B286AADF80E2040F2FE
:1088F0000511ADF80C10CDE9043300F007F803A919
:10890000FFF716FF6DE700BFA46400208088704762
:108910008FDF704790DF7047B1DF7047B5DF70477A
:1089200010B5074B03600446806A0EF0DBF8E06A7E
:108930000EF0D8F8206B08B10EF0D4F8204610BD28
:108940006419040010B5094B03600446806A0EF0F8
:10895000C9F8E06A0EF0C6F8206B08B10EF0C2F854
:1089600020460FF091FD204610BD00BF64190400A1
:1089700070B504460D4692E80300A5800E0CA06178
:10898000A183144DA67717201B2156892560E0800E
:108990009589D089E181D17965810122227522747E
:1089A000A08161741846194626819DF810500DF07B
:1089B000FBFA2946A06228460DF0F6FA4FF48851DA
:1089C00000234FF6FF72E182E062628223636375E7
:1089D000204670BD64190400007D7047407D7047DB
:1089E000C07D113818BF0120704700BF407C704720
:1089F000C0887047008970474B7D10B44BB11F3160
:108A00000C688A888B79046082805DF8044B8371DE
:108A100070471831F4E700BF08B56621806A0DF091
:108A2000E5FE003818BF012008BD00BF08B50023CF
:108A30001A461946806A0DF0E9FA003818BF01207D
:108A400008BD00BF818800F11F02407C02F09EB883
:108A500038B50A4605460C468188407C02F082F80B
:108A60002146012051F8483FC5F81F308B888A798C
:108A700085F82520A5F82330687538BD38B50A4635
:108A800004460D4600F11801407C02F0B5F860750F
:108A900050B1294651F8483FC4F81F308B888A7975
:108AA00084F82520A4F8233038BD00BF10B5447DDC
:108AB00024B100F11F01407C02F07CF8204610BD7B
:108AC00070B50B88113B82B00C460546462B2BD85F
:108AD000DFE803F0383B2A2A2A2A2A2A2A422A2AAD
:108AE0002A2A2A2A50585E642A2A2A2A2A2A2A2A24
:108AF0002A2A2A2A2A2A2A2A2A2A2A2A2A672A942F
:108B00002A2A2A2A2A2A2A2A2A2A2A2A2A2A2A2AC5
:108B10002A2A2A2A2A246A2A752C84000023A88853
:108B20001A461946FFF7F8FE02B070BD8B79002B8C
:108B3000FAD1006BAB750028F6D01A4619460DF035
:108B400065FAF1E700230375EEE74B8903818B8912
:108B50004381CB898381E7E70B7AC375112BE3D07F
:108B6000818800F11F02407C02F0FEF803460028D5
:108B7000DAD1D4E7002301A98088ADF80430FFF7EB
:108B8000C7FED1E70B7A002BCED14B7A0374CBE72B
:108B9000002211468088FFF7BDFEC5E70B89C3811F
:108BA000C2E74B89C380BFE7006B0123AB75002888
:108BB000BAD000231A4619460DF028FAB4E7417CD2
:108BC000164801F0BDFEE3880146994228BF1946C8
:108BD00089B2A888E980FFF7A1FEA5E78B79002B71
:108BE000A2D0002600231A461946A86A0DF00EFAF4
:108BF0000136A279F3B29A42F4D895E78B7A002B2A
:108C000092D0002600231A461946E86A0DF0FEF9B4
:108C10000136A27AF3B29A42F4D885E7A464002020
:108C200070B58AB086880B4606A84FF428511446C2
:108C300005934FF6FF7501F05BF90120CDE90105C1
:108C4000059B0094314606AA044800F06FF80446DC
:108C500006A801F045F920460AB070BDE46800207E
:108C600010B50446043001F0CFFE034B236000230F
:108C70002375204610BD00BF0100FFFF017D01B13B
:108C8000704710B50446043001F0C8FE0123237577
:108C900010BD00BF007D70470B88322B10B504D08B
:108CA000332B17D0302B08D010BDCB88DBB1041D7F
:108CB0002046BDE8104001F023BFCB88041D002BE7
:108CC000F6D14B89002BF3D00A3120460A2201F05D
:108CD000FFFEEDE7CB88002BE9D14A89002AE6D0D8
:108CE00002EB420204E04A89002AE0D002EB820251
:108CF0005200041D023292B20A31204601F0E8FE11
:108D0000D6E700BFA0DF704710B5044600F5F87045
:108D100001F07AFE2046F822002115F02DFBF82202
:108D2000A018002115F028FB204610BD2DE9F047C2
:108D300082B00546BDF82C60BDF830402048ADF843
:108D40000460BDF828A0ADF80640904699460F464D
:108D500001F0FEFD05F5F875064603E0FFF74AFE53
:108D60000DF042F8284601F0B1FE04463046002CD2
:108D7000F4D10121284601F051FE524649462846C9
:108D800001F068FE08F10401384601AAFFF7BAFFB6
:108D900030B1284601F04CFE204602B0BDE8F08715
:108DA0004FF4FA71284601F05BFE20EAE074284691
:108DB00001F03EFEA4B2204602B0BDE8F08700BF3D
:108DC000A46400202DE9F04F8F880D8885B0884677
:108DD00004463946864801F0BBFDA5F11003012B7E
:108DE000814640F2908094F854203AB300263346EE
:108DF0001633502D54F823A069D0512D1AD198F86C
:108E00000630B8F808B0022B53D0BBF1000F11D0D8
:108E100051466846FFF772FCBDF800305B4559D0FB
:108E2000514602A8FFF76AFCBDF80C305B4551D0F3
:108E300094F854200136F3B29342D9D394F84C31CC
:108E4000002B00F0D18004F5A679002604E094F808
:108E50004C310136B34220DD59F8040FFFF770FCA6
:108E6000B842F4D1382D03D0392D01D0362DEED1B2
:108E7000B8F80AA0BAF1000FE9D0D9F800B0584606
:108E8000FFF762FC5045E2D158464146FFF75EFCD1
:108E900094F84C310136B342DEDC112D55D0352D1E
:108EA00004D1B8F80A30002B40F08F8005B0BDE83F
:108EB000F08F98F80E30062BA7D1DAF80030504624
:108EC000DB68414698474846FFF78AFDB0E7B8F8A7
:108ED00006B09AE7DAF800305046DB68414698471A
:108EE0004846FFF77DFD0028A2D0502DA0D1514665
:108EF00002A8FFF703FCBDF80C305B4598D148464B
:108F0000FFF7A0FD94E72378002B3FF46CAF002619
:108F1000112D33460CD004EB83033946586803689F
:108F20005B68984701362278F3B29A42F3D85AE741
:108F300004EB83033946586803681B689847013679
:108F40002278F3B29A42F3D84DE7D3B100263346E4
:108F500005E094F84C210136F3B29A4211D904EBA2
:108F60008305D5F85001FFF7EBFBB842F1D1D5F8F6
:108F70005001FFF7E1FB013694F84C21F3B29A421D
:108F8000EDD894F8F820002A90D000252B4604EB69
:108F90008303D3F8FC008388BB420AD00135EBB2CF
:108FA000934283D204EB8303D3F8FC008388BB4253
:108FB000F4D103681B689847013594F8F820EBB2A8
:108FC0009342E4D305B0BDE8F08F04F5F874B8F827
:108FD0000C20204608F1100101F07AFD204605B072
:108FE000BDE8F04F01F08CBD112D7FF458AFC8E7FC
:108FF000A464002090F85420272A0CD810B403460B
:1090000002F11604013280F8542043F824100120A4
:109010005DF8044B70470020704700BF0378132BA6
:1090200006D800EB830201330370012051607047C2
:109030000020704778DF70477ADF7047054A0346A3
:1090400092E80300002283E80300C3E902221846E5
:10905000704700BF6C19040008B5FFF7EDFF08B1B9
:10906000002008BDFFF7E6FFB0FA80F0400908BD18
:10907000F8B500250D4F2E4601E0142D14D0A9B2ED
:10908000384601F065FC013504460028F5D0FFF7AD
:10909000A3FC0028F1D02046FFF7A8FC012804BF5C
:1090A0000136F6B2142DEAD13046F8BDA464002092
:1090B00081607047C1607047704700BF8ADF7047AA
:1090C00030B40D4CC4621F25002250248584A02595
:1090D000C0E91122C0E90F22A0F84650A0F848408C
:1090E000006230BC8262028680F838204263C2642B
:1090F000A0F85020704700BF000180002DE9F04F1C
:1091000010468DB016460C4600F020FFC5B2102D5B
:109110004FD0B66807220623A16994F81C900191EC
:109120008DF80D208DF80C30ED080DF10C080DF1C7
:109130000E0A0027B9F1010F0A97CDE90477CDE9AE
:109140000677CDE90877CDF82B700ED998F8000096
:1091500001994B464A7882420FD00A78D44323447F
:10916000013213F0FF031144F4D108F10108C245A4
:10917000E0D100200DB0BDE8F08F11F8024B013CAA
:10918000E4B2224604A815F0CFF80DF1100B1CB97B
:10919000EBE714F0FF04E8D058462A46314615F0B4
:1091A000B5F8641BAB440028F3D101200DB0BDE835
:1091B000F08F043603220223AEE700BF2DE9F0430F
:1091C0000B888E88103B87B00D4604460D2B2CD89B
:1091D000DFE803F077072B2B2B2B2B2B2B2B2B8450
:1091E0002B2E836AF340DB071FD55648FEF704FF9A
:1091F000D8B9A36A94F82C20012505FA06F623EACB
:109200000606A6628AB994F82D3073B11F23246232
:10921000A38404F1200104F14400FFF74FFF20B9BB
:10922000494801F0ADFB84F82C5007B0BDE8F0834D
:1092300090F92E2091F91B309A423ADC90F83830A0
:1092400001F108080BB3DFF80491002602E0D6B262
:10925000B34218D9636BCDF8089003EB061302AA4A
:1092600059680391D3E90273414620460593049758
:10927000FFF744FF074602A800F032FE94F83830AA
:10928000721C002FE3D09E4213D094F82F30002B95
:1092900049D095F82430012B0BD9296A4A78FF2A46
:1092A00030D00A78D0430344013213F0FF03114455
:1092B000F4D104F120010020FFF700FF07B0BDE862
:1092C000F083CB7B022BB0D1836A012202FA06F62F
:1092D00033430022836280F82C20A6E70B7A012B0F
:1092E000A3D1002580F82C50174801F05DFB226CBB
:1092F000002A9AD0009502AB2946284602950FF025
:1093000061FB92E711F8025B6A1ED2B2022A28BF03
:10931000022202A815F008F8012DCAD0228EBDF84D
:1093200008309A42C5D1E26B002A3FF47EAF012398
:109330000093404602AB2421CDF808800FF042FB99
:1093400073E700BFB4640020A464002094190400F3
:1093500046DF70477FDF704780DF704781DF7047EF
:1093600085DF704786DF704738B51C460D460346DB
:10937000114628462246984734B101460022284625
:10938000BDE83840FFF7E8BF38BD00BF10B50C4658
:1093900082B003466946204698476A462046012126
:1093A000FFF7DAFF02B010BD10B50446083001F037
:1093B00005FF074B2360032200232271C4F81034F9
:1093C000C4F81434C4F81834C4F81C34204610BD52
:1093D0003507100330B50446ADF55F7D00F1080593
:1093E0008F4801F07FFE0821284601F0EBFE684619
:1093F00001F0F2FE6846082101F0F2FE69462846B7
:1094000001F090FE04F54F714122684601F0F6FE2E
:10941000684601F0EFFE94F85C0394F85B2394F83F
:109420003D1394F83E3384F83D0384F83E2394F8CA
:109430005A0394F8592394F83F5384F85C1384F842
:109440005B3394F8401394F8413384F83F0384F875
:10945000402394F8580394F8572384F85A5384F817
:10946000591394F8425394F8431384F8410384F851
:10947000583394F8560394F8443384F8422394F80C
:10948000552384F8575384F8430384F8442384F81D
:10949000553384F8561394F8451394F8540394F80C
:1094A000532394F8463384F8450384F8462394F80C
:1094B000520394F8512394F8475384F8541384F8D2
:1094C000533394F8481394F8493384F8470384F8E5
:1094D000482394F8500394F84F2384F8525384F8A7
:1094E000511394F84A5394F84B1384F8490384F8C1
:1094F000503394F84E0394F84C3384F84A2394F88C
:109500004D2384F84F5384F84B0384F84C2384F89C
:109510004D3384F84E1394F85D1394F87C0394F85B
:109520007B2394F85E3384F85D0384F85E2394F81B
:109530007A0394F8792394F85F5384F87C1384F8C1
:109540007B3394F8601394F8613384F85F0384F8F4
:10955000602394F8780394F8772384F87A5384F896
:10956000791394F8625394F8631384F8610384F8D0
:10957000783394F8760394F8643384F8622394F88B
:10958000752384F8775384F8630384F8642384F89C
:10959000753384F8761394F8651394F8740394F88B
:1095A000732394F8663384F8650384F8662394F88B
:1095B000720394F8712394F8675384F8741384F851
:1095C000733394F8681394F8693384F8670384F864
:1095D000682394F8700394F86F2384F8725384F826
:1095E000711394F86A5394F86B1384F8690384F840
:1095F000703394F86E0394F86C3384F86A2394F80B
:109600006D2384F86B03012084F86F5384F86E1384
:1096100084F86C2384F86D330DF55F7D30BD00BF99
:10962000306C00200B7803F0FE03042B01D00020E7
:10963000704770B515468CB00C462022002104A856
:1096400014F09AFE28686968AA68EB686D460FC531
:109650009DF800109DF80F209DF801609DF80E50B8
:109660009DF802008DF80F1023469DF80D108DF81F
:1096700000209DF803208DF80E608DF801509DF8B4
:109680000C609DF804508DF80D008DF802109DF8C7
:109690000B009DF805108DF80C209DF80A208DF820
:1096A00003608DF80B508DF804008DF805208DF8BF
:1096B0000A109DF8061033F8042FADF810209B789F
:1096C0009DF809209DF81D009DF810609DF81F5021
:1096D0008DF809108DF806209DF811109DF81E20B8
:1096E0008DF81D309DF807308DF812008DF81F6041
:1096F0009DF808009DF813608DF810508DF81E102D
:109700009DF81C509DF814108DF811208DF808302C
:109710009DF81B209DF81A308DF807008DF81C600D
:109720008DF813509DF815608DF81B108DF81420DE
:1097300068468DF815309DF819109DF817209DF892
:1097400018309DF816508DF818208DF816108DF8E9
:1097500017308DF81A608DF81950FFF7F9FD62780F
:109760009DF82F309DF82E009DF82D108DF82100CA
:109770009A428DF8221004F1010404D0012080F0F7
:1097800001000CB070BD6278C3B29A4204F10104CA
:10979000F4D16278CBB29A42F0D10020EFE700BF5B
:1097A00008B5137CDB0758BF1C32084602F11201D2
:1097B000FFF7D6FDB0FA80F0400908BDF0B58F88FC
:1097C0000E46ADF56B7D04463946464801F0C0F8BB
:1097D0003388133B0546072B2FD8DFE813F03E00F4
:1097E0005F006D002E002803870008003100337AE7
:1097F000B3B9737B9B070ED4294602A8FFF7FCF888
:109800000299BDF80C209DF80E3084F80C34C4F891
:109810000614A4F80A24284604F2BE31FFF718F90A
:10982000D4F818244AB1307A0D9002230021009315
:1098300008460CAB0C970FF0C5F80DF56B7DF0BD2D
:10984000D4F81C24002AF8D00123002100930846F4
:109850000CAB0C970FF0B6F8EFE704F2BE3304F24E
:10986000DA320C9304F2F63300251092119304F2CD
:109870003D3204F27E330F921393CDE90D551295CC
:10988000FFF7B4F801280CBF22462A460CAB294644
:109890003846FFF75FFD0DF56B7DF0BD0CA9FFF7B6
:1098A000EDF80346002800F0D2820CA938460023C8
:1098B0001AAAFFF757FDC0E7D4F810140029BCD04E
:1098C000B37B094A03F001030F930423CDE90C177E
:1098D00006F10800009306210CAB0E900FF072F811
:1098E000ABE700BFA46400206993020094F87E33C4
:1098F00094F89D2394F87FC394F89C6394F8805364
:1099000094F89B0384F89D33042194F89A3384F8E7
:109910007D1384F87E2394F8811394F8822384F8CD
:109920009CC384F87F6394F899C394F8836384F8A4
:109930009B5384F8800394F8985394F8840384F834
:109940009A1384F8813394F8971394F8853384F844
:10995000992394F8962384F882C384F8986384F852
:10996000835384F8970384F8841384F8852384F858
:10997000963394F8862394F8953394F887C394F833
:10998000946394F8885394F8930394F8891384F8B3
:10999000952384F8863394F8922394F88A3384F8D4
:1099A00094C384F8876394F891C394F88B6384F824
:1099B000935384F8880394F8905394F88C0384F8B4
:1099C000921384F8892394F88F1394F88D2384F8E4
:1099D000913394F88E3384F88AC384F8906384F8C2
:1099E0008B5384F88F0384F88C1384F88D3384F8B8
:1099F0008E2394F89E2394F8BD3394F89FC394F873
:109A0000BC6394F8A05394F8BB0394F8A11384F8B2
:109A1000BD2384F89E3394F8BA2394F8A23384F8D3
:109A2000BCC384F89F6394F8B9C394F8A36384F823
:109A3000BB5384F8A00394F8B85394F8A40384F8B3
:109A4000BA1384F8A12394F8B71394F8A52384F8E3
:109A5000B93394F8B63384F8A2C384F8B86384F8B1
:109A6000A35384F8A41384F8B62384F8A53384F8A8
:109A7000B70394F8A60394F8B51394F8A72394F8C1
:109A8000B43394F8A86394F8B35384F8B50384F816
:109A9000A61394F8A90394F8B21384F8B42384F8B5
:109AA000A73394F8AA2394F8B13384F8B36384F805
:109AB000A85394F8AB6394F8B05384F8B20384F8D5
:109AC000A91394F8AC0394F8AF1384F8B12384F885
:109AD000AA3394F8AD2394F8AE3384F8AD3384F808
:109AE000AE2384F8B06384F8AB5384F8AF0384F8F2
:109AF000AC130CA801F070FB0CA8082101F070FB5E
:109B000004F27D310CA8412201F08AFB0CA904AAC1
:109B1000202304F1080001F033FB0CA801F06AFBDC
:109B20009DF810109DF82F009DF811309DF82E2003
:109B30009DF812609DF82D508DF810008DF82F10B3
:109B40009DF813009DF82C108DF811208DF82E3003
:109B50009DF814209DF82B308DF812508DF82D6053
:109B60009DF815509DF82A608DF813108DF82C0083
:109B70009DF816109DF829008DF814308DF82B20D3
:109B80009DF817309DF828208DF815608DF82A5023
:109B90008DF816008DF817208DF828308DF82910D3
:109BA0009DF818109DF827009DF819309DF8262083
:109BB0009DF81A609DF825508DF818008DF8271033
:109BC0009DF81B009DF824108DF819208DF8263083
:109BD0009DF81C209DF823308DF81A508DF82560D3
:109BE0009DF81D509DF822608DF81B108DF8240003
:109BF0009DF81E109DF821008DF81C308DF8232053
:109C00009DF81F309DF820208DF81D608DF82250A2
:109C10008DF821108DF81F208DF820308DF81E0052
:109C200094F87E0394F89D1394F87F2394F89C3362
:109C300094F8806394F89B5384F89D0384F87E1312
:109C400094F8810394F89A1384F89C2384F87F3362
:109C500094F8822394F8993384F89B6384F88053B2
:109C600094F8836394F8985384F89A0384F88113E2
:109C700094F8840394F8971384F8992384F8823332
:109C800094F8852394F8963384F8986384F8835382
:109C900084F8841384F8962384F8853384F8970332
:109CA00094F8860394F8951394F8872394F89433E2
:109CB00094F8886394F8935384F8950384F8861392
:109CC00094F8890394F8921384F8942384F88733E2
:109CD00094F88A2394F8913384F8936384F8885332
:109CE00094F88B6394F8905384F8920384F8891362
:109CF00094F88C0394F88F1384F8912384F88A33B2
:109D000094F88D2394F88E3384F8906384F88B5301
:109D100084F88C1384F88E2384F88D3384F88F03B1
:109D200094F89E0394F8BD1394F89F2394F8BC33E1
:109D300094F8A06394F8BB5384F8BD0384F89E1391
:109D400094F8A10394F8BA1384F8BC2384F89F33E1
:109D500094F8A22394F8B93384F8BB6384F8A05331
:109D600094F8A36394F8B85384F8BA0384F8A11361
:109D700094F8A40394F8B71384F8B92384F8A233B1
:109D800094F8A52394F8B63384F8B86384F8B7033D
:109D900084F8A41384F8B62384F8A53384F8A35375
:109DA00094F8A65394F8A72394F8B43394F8B50321
:109DB00094F8A81394F8B36384F8B55384F8B423E3
:109DC00094F8A95394F8AA2384F8A73394F8B133EC
:109DD00094F8B0C384F8A60384F8B31394F8B203DC
:109DE00094F8AB1384F8A86384F8B25394F8AC6386
:109DF00094F8AF5384F8B12384F8AA3394F8AD23D0
:109E000094F8AE3384F8A90384F8B013384604A953
:109E100084F8ABC384F8AF6384F8AC5384F8AE2302
:109E200084F8AD33FFF79AFA0DF56B7DF0BDD4F8E9
:109E30001424002A3FF401AD0223002100930C9268
:109E40000CAB064A0D9708460EF0BCFDF5E438460B
:109E50001A461946FFF786FAEFE400BF8D93020019
:109E6000A8DF7047704700BF30B5044683B00830A4
:109E700000F07CF804F10C010DF106020120FFF75F
:109E8000EFFF054628B9044B04481C602146FFF744
:109E9000C5F8284603B030BDA0640020E468002067
:109EA00030B44C68C460D1E90241054A054D0260F6
:109EB000054A8560C0E90441426030BC704700BF7C
:109EC0007C190400941904000000111183790B70AF
:109ED000C3791370704700BF62DF704763DF70475C
:109EE000704700BF10B504460EF0CEFA204610BDF4
:109EF00010B4054C8180002201210460C0E90222D7
:109F00005DF8044B817170479419040038B50E4B0D
:109F10000360044608460D4615F009F9042806D0EA
:109F20000023A371E560A380A360204638BD2846C6
:109F30001022002115F0B6F901220023A271A080A1
:109F4000C4E90233204638BD941904008379012BFB
:109F50000AD0826832B9C26822B9012B8CBF802036
:109F60000020704780207047102070472DE9F0478F
:109F7000857982B0002D47D1C7680646002F47D0AB
:109F800010200BF04DFF8246384615F0D0F8441EE5
:109F900030B3DFF88490A84604E00134023C1FD4BB
:109FA000102D1DD017F804C0BCF12D0F07EB0402D3
:109FB000F3D099F80030ADF805808DF8043012F830
:109FC000013C8DF804301022002101A88DF805C055
:109FD00015F068F96B1C023C0AF80500DDB2DFD50C
:109FE000C6F808A0BAF1000F0ED0B11D5046FFF719
:109FF00073FFB168321D1020FFF770FFB0FA80F0D8
:10A00000400902B0BDE8F087012002B0BDE8F0874A
:10A01000D0F808A0E6E700BF881904004DDF7047BC
:10A020004EDF70474FDF704750DF70474BDF7047A0
:10A0300010DF70477CDF70477DDF704760DF70475F
:10A0400069DF704761DF704766DF704767DF704721
:10A05000704700BF0C200FF045B800BF30B5224C50
:10A06000224D83B0D4F828074FF0FF310CF0BEFB2F
:10A070000028F7D0C5B101A8FFF7D8FF0528F1D017
:10A080000028F8D1019B032B1BD8012BF3D91846CC
:10A090000BF072FCEFE70A2B04D0092B21D00B2B1D
:10A0A00002D1012005F040FB01A8FFF7BFFF052802
:10A0B000D8D00028F8D1019BA3F10902022AF3D8D5
:10A0C000E9E7A3F10902022AD5D80A2B04D0092B0B
:10A0D00005D00B2BCFD1012005F026FBCBE70220CA
:10A0E000FAE70220DEE700BFA464002079590300EC
:10A0F0002DE9F04F2DED028B4FF4FA7089B00BF083
:10A100008FFEB24E00F1080308EE103A054606F540
:10A11000F06706F5C86AD6F824074FF0FF310CF057
:10A1200065FB0028F7D04FF4FA730DF116012846AD
:10A13000ADF81630FFF786FF10B10528F3D1EAE736
:10A14000B5F80490B9F1130F00F2398106EB8903D9
:10A15000D3F834473CB129462046FEF7B1FC9C4871
:10A160002946FFF72BFB2B88013B1B2B5AD8DFE836
:10A1700013F01601590059005900590059005900AF
:10A180005900590059005900590059005900590007
:10A19000B4001C00590059005900590059005900D9
:10A1A0005900590059005900A200DFF838824FF0D9
:10A1B000000B58F8040F30B1FEF70EFC18B10BF18C
:10A1C000010B5FFA8BFBB845F3D1BBF1000F06D151
:10A1D00096F830371BB159460C200EF065FF20462B
:10A1E000FEF704FC012800F0EC80F26962B1022362
:10A1F000002195F808C00093084606ABCDF81890EA
:10A20000CDF81CC00EF0DEFB09F5E67806EB8803FE
:10A21000586810B103685B68984706EB880800230C
:10A22000C8F8043029465046FDF760FE69482946C3
:10A23000FEF7C4FFB6F832374B452B8800F0B480E8
:10A24000102B1ED02CB32046FEF7D0FB012803D1E3
:10A250005E482946FEF730FF2046FEF7C7FB02287E
:10A260001BD05D48FEF716FD00BB5C482946FEF793
:10A27000A9FDD6F88837002B3FF455AF28469847FC
:10A2800051E7EB7B012BDDD1AB88A6F83237002CF0
:10A29000D9D14E482946FEF70FFF51482946FDF710
:10A2A000CBFE4D48FEF7F6FC0028DED04A48294692
:10A2B000FEF7F2FCD9E7D6F88427002AB2D00223B1
:10A2C000002195F908C00093084606ABCDF8189018
:10A2D000CDF81CC00EF076FBA4E74FF00008D6F8CE
:10A2E0002C07CDF800804346424603213D4C0DF03B
:10A2F000FDFD54F8040F30B1FEF76EFB18B108F104
:10A3000001085FFA88F8BC42F3D196F830376BB198
:10A31000B8F1000118BF01210C200EF0C5FE96F81F
:10A3200030371BB101210C200EF0BEFE09F5E67896
:10A3300006EB8804606820B103685B6898470023D7
:10A340006360EB7B012B0BBF96F8123796F818373A
:10A3500096F8134796F81947039334200EF092F8B5
:10A3600006EB8808039B009418EE102A0446494621
:10A37000FEF7FEFA2046C8F80440FEF737FB012836
:10A3800032D0B269002A3FF44DAF0123002100937F
:10A39000084606ABCDF818900EF014FB42E70021FA
:10A3A0004846FFF751FE3DE7102B3FF46AAF112BF3
:10A3B0007FF448AF4FF6FF73A6F8323742E7044602
:10A3C000D1E6F268002A7FF412AF1DE7A4640020F2
:10A3D000C4640020406B0020946B0020E4680020DF
:10A3E000B4640020D46B0020B268002A3FF41AAF96
:10A3F0000021009006AB0846CDF818900EF0E2FA66
:10A4000010E700BF38B50446FEF718FE04F110004F
:10A41000FDF7DEFD04F12000FEF7C6FF04F58860BD
:10A42000FEF772FC04F5C860FDF780FC04F27C6066
:10A43000FDF720FC04F29C60FEF742FE04F5DE60AE
:10A44000FEF70EFC4FF480530025C4F80837164879
:10A450001649174AC4F80C0740F20113C4F8101744
:10A46000C4F81427A4F81837A4F81A5704F2347063
:10A470002946502213F080FF01224FF6FF73A4F803
:10A480001C5784F81E57C4F82457C4F82857C4F83A
:10A490002C57C4F88857C4F8845784F83027A4F898
:10A4A0003237204638BD00BF010A17000300010102
:10A4B00017000300F0B5BF4E80F81C178DB080F870
:10A4C0001D2704460EF05CF80EF062F80EF020F83E
:10A4D0003369B949039303A8FFF7AAFD18B1002512
:10A4E00028460DB0F0BD0120FFF79AFD0120FFF7CF
:10A4F00095FD0120FFF796FD09A8FFF795FD099B43
:10A500009B0705D5AD4BD3F80435002B00F0FE803A
:10A510000023AB4A94F80D57049209A90120CDE914
:10A5200009330B938DF82450FFF78AFD0028D6D10C
:10A5300094F81D370B90CDE90900181E18BF0120B3
:10A5400094F81C578DF82700049A8DF8263009A935
:10A5500040208DF82550FFF773FD0028BFD194F8F7
:10A560000C170990034661F30003CDE90A00049A31
:10A570008DF8243009A9A020FFF762FD0028AED194
:10A58000D4F808370A900B90049A099309A9A120DE
:10A59000FFF756FD0028A2D194F81C37002B40F09D
:10A5A000B98094F81D37002B48D00023B4F81477F5
:10A5B000049A0993022509A92320CDE90A338DF8CD
:10A5C0002450ADF82670FFF73BFD002887D1CDE978
:10A5D000090094F81D77B4F816370B90049A8DF89B
:10A5E000245009A920208DF82670ADF82830FFF7F7
:10A5F00027FD00287FF473AF0990CDE90A0094F895
:10A600001837049A8DF8245009A922208DF8263095
:10A61000FFF716FD00287FF462AFCDE9090094F83A
:10A6200019370B90049A8DF8245009A921208DF830
:10A630002630FFF705FD00287FF451AF04A8FFF78F
:10A64000FDFC00287FF44BAFCDE9070040F001038B
:10A6500007A902208DF81C30FFF7F8FC00287FF4D2
:10A660003EAF2046FEF7F8FC054600283FF437AF22
:10A6700004F12000FEF7AEFE337D52498DF808301C
:10A68000132202A8FFF7D6FC00287FF428AF94F825
:10A690001D37002B40F088800322002101200BF0A1
:10A6A00041FCC4F8240700283FF419AF05AB03268A
:10A6B000CDE900634449454800234FF4A0620CF003
:10A6C000AFFB3246002101200BF02CFCC4F8280718
:10A6D00000283FF404AF06ABCDE900633C493D4898
:10A6E0000023C8220CF09CFB3B4B4FF480021A6005
:10A6F0003A4B00930023184601224FF480710DF06D
:10A700009FFBC4F82C0700F007FAE9E6022005F0E9
:10A710000BF8FDE60990CDE90A00B4F80E37049A6B
:10A72000ADF82630012509A923208DF82450FFF724
:10A7300087FC00287FF4D3AECDE9090094F81C779C
:10A74000B4F810370B90049A8DF8245009A92020F2
:10A750008DF82670ADF82830FFF772FC00287FF4E2
:10A76000BEAE0990CDE90A0094F81237049A8DF82C
:10A77000245009A922208DF82630FFF761FC00281B
:10A780007FF4ADAECDE9090094F813370B90049A2D
:10A790008DF8245009A921208DF82630FFF750FCB0
:10A7A00000283FF4FEAE9AE604F11000FDF71EFC0F
:10A7B00072E700BFF419040051A0020000700240CB
:10A7C00000600020D8190400EC190400F1A0020078
:10A7D000F01904005DA0020000E100E055A00200B5
:10A7E00000B5084B85B01B7D019108468DF80C30F3
:10A7F00014F09DFC019982B203A8FFF71BFC05B081
:10A800005DF804FBF419040000B583B008460DF1AF
:10A810000601ADF80620FFF70FFC20B99DF80600F1
:10A8200003B05DF804FB002003B05DF804FB00BF3B
:10A8300070B4234B0E4605460FCB85B06C4607C45B
:10A840009DF900202380B24234D09DF90130B342FB
:10A8500030D09DF90230B3422CD09DF90330B34281
:10A8600028D09DF90430B34224D09DF90530B3427D
:10A8700020D0FEB19DF90730B3421BD09DF90830BE
:10A88000B34217D09DF90930B34213D09DF90A3075
:10A89000B3420FD09DF90B30B3420BD09DF90C3071
:10A8A000B34207D09DF90D30B34203D0002005B06C
:10A8B00070BC7047012085F81E6705B070BC7047FA
:10A8C0000C1A040090F91E07704700BF80F830177B
:10A8D000704700BF70B5044682B0D0F82C070D4613
:10A8E0000DF030FB4FF47A7206460023A90DA80242
:10A8F00013F0F0FA002302460421D4F82C07009349
:10A900000DF0F4FA0EB102B070BD0096D4F82C0729
:10A910003346324603210DF0E9FA02B070BD00BFA4
:10A92000132906D800EB8101D1F8340708B1FEF7EE
:10A9300053B80020704700BFB0F83207704700BF1F
:10A9400001290CBFB0F80E07B0F81407704700BF1C
:10A9500013299ABF00EB8101D1F83407002070471A
:10A9600010B5064C0021D4F828070BF0B3FDD4F83D
:10A9700024070021BDE810400BF0ACBDA46400200A
:10A9800090F8303703B9704710B582B0D0F82C4733
:10A990000CF036FC002302460093204601210DF006
:10A9A000A5FA02B010BD00BFF0B583B00024054683
:10A9B0002346D0F82C070094224603210DF096FA86
:10A9C00005F5E66605F5F06756F8040F20B1FEF7C9
:10A9D00003F808B10134E4B2BE42F5D195F830373E
:10A9E00043B1211E18BF01210C2003B0BDE8F04087
:10A9F0000EF05ABB03B0F0BD0148FFF703BD00BF26
:10AA0000A464002000207047002201214270C0E9A8
:10AA100001220170C2818281704700BF10B50446D7
:10AA2000017001B110BD0A200BF0BEFA606010BDCC
:10AA3000037810B5044643B1002301226370C4E9D2
:10AA40000133E381A381227010BD40680CF04AF805
:10AA5000F2E700BF002381608281C381704700BF9D
:10AA6000037870B504460D46B3B946680123637098
:10AA70004FF47A720023A802A90D13F02BFA0146B5
:10AA800030460BF0B3FE98B9237800264FF0FF351F
:10AA90006670A3B9284670BD0322002101200BF087
:10AAA00041FA064660600028E0D14FF0FF35F1E73B
:10AAB000E58923780026ADB26670002BEAD0606885
:10AAC0000CF010F86660284670BD00BF40787047F3
:10AAD00038B504468089824228BF0246154619B11E
:10AAE000A06813F021FCA089E389A26815FA83F31A
:10AAF000401B9BB22A44A081E381A260284638BD56
:10AB0000406820B100231A4619460BF07FBA7047FF
:10AB1000B1DF7047B2DF704708B50F480AF0BAFDE1
:10AB20000E490D4805F09AF828B10D490A4805F07C
:10AB300095F850B108BD0949074805F0ABF8084938
:10AB4000054805F08BF80028F4D1BDE80840044919
:10AB5000014805F09FB800BF647900201C1A04006A
:10AB6000301A040070B586B00E4603230021054656
:10AB700014460093044A0496084603AB03950594D3
:10AB80000DF020FF06B070BD51AE020070B586B06A
:10AB90000323144606460D460093104603AB044AB1
:10ABA00005940721CDE903650DF00CFF06B070BDDB
:10ABB00081AF020030B50A4691B08979537903918B
:10ABC00011790293D378094D094C01910093937840
:10ABD000527801280CBF2946214604A814F052FAE5
:10ABE00004A9044805F0AEF811B030BD441A0400C1
:10ABF000741A0400647900202DE9F043D1B00B7879
:10AC0000032B04AF0D460446904668D95A08022A21
:10AC10005ED14F4A4F49504BDFF84891012818BF89
:10AC200011460022381D05F065FA4B4907F168000E
:10AC300005F096F907F1CC0611E00246414607F10E
:10AC4000680005F07FFA08F1380229464846FEF709
:10AC5000E9FC044678BB07F1680005F0E9FA002238
:10AC6000391D304605F016FB07F1D0000DC8D7F8A6
:10AC7000DC10D7F8E4407B67D7F8E83097F8E0C0FD
:10AC8000F8663A67B967412207F1EC0107F18800DD
:10AC9000C7E9204387F87CC013F046FB07F1680042
:10ACA00005F0F2FA044607F1680044B105F0F8F83F
:10ACB0005028D0D1C1E707F1680005F0B9FA381D76
:10ACC00005F0B6FA204607F59A77BD46BDE8F08351
:10ACD0000024204607F59A77BD46BDE8F083E94693
:10ACE0008CB08979AB786A78039169790291297976
:10ACF00001911A4E1A49E878009004AD012C08BF62
:10AD00003146284607F1CC0614F0BCF9124930460A
:10AD100005F026F929463046002205F0CFF9044611
:10AD200050B90024304605F083FA2046CD4607F599
:10AD30009A77BD46BDE8F083304605F0B1F8021EB3
:10AD4000EFDD92B24146304605F0FCF9EAE700BF7C
:10AD5000301A04001C1A040064790020441A04000C
:10AD6000741A0400C4640020F0B5ADB095799378EE
:10AD7000344E1446527803956579029594F804C0D0
:10AD8000CDF804C0304DE478009404AF0C4601289F
:10AD90000CBF3146294607F10C0014F073F92B4B18
:10ADA00007F10C0107F13C00002205F0A3F907F1BF
:10ADB0003C0005F069FA40B9002407F13C0005F0B9
:10ADC00037FA2046A437BD46F0BD07F13C0005F038
:10ADD00067F8051E08DD07F13C0005F0F1F92918B8
:10ADE00007F13C0005F0CEF907F13C0005F058F8FA
:10ADF000051E08DD07F13C0005F0E2F9291807F10E
:10AE00003C0005F0BFF907F13C0005F049F80028C7
:10AE1000D2DDC31D23F007036D46ADEB030D82B2F7
:10AE200004A907F13C00C7E9001205F08BF92046A0
:10AE3000D7E900120323FFF76BFEB0FA80F4640930
:10AE4000AD46BAE7441A0400741A0400647900207D
:10AE5000F0B5B5B092F84E5092F84A30434E1446D1
:10AE600092F84920039594F84D50029594F84C506F
:10AE7000019594F84B5000950D463D4904AF0128CB
:10AE800018BF314607F12C0014F0FCF8394807F1DF
:10AE90002C0104F0E3FE6E4600284AD1354B07F141
:10AEA0002C0107F15C00012205F024F907F15C0098
:10AEB00005F0EAF918B9C437B546BD46F0BD5021D2
:10AEC00007F15C0005F01AF85022214607F15C00FA
:10AED00004F052FF0023294627487B61C7E903336A
:10AEE000C7E90633C7E90833BB62FFF731FD07F155
:10AEF0000C012022FDF794FE3B7B03B307F10C000D
:10AF000014F015F9013082B2C1B207F15C007A6029
:10AF100004F0F4FF7A6807F10C0107F15C0004F01B
:10AF20002BFF07F15C0005F083F9C437B546BD4639
:10AF3000F0BD07F12C010F4804F004FFAEE794F8D0
:10AF4000491094F84D3094F84E20039194F84A102B
:10AF5000029194F84B10019194F84C10009107F174
:10AF60000C00064914F08EF8C8E700BF741A0400FC
:10AF7000441A040064790020A4640020A41A040088
:10AF80002DE9F043ADB00C4604AF00210323064683
:10AF90001546204607F10A027981FFF7BBFD7B8940
:10AFA000E84623B9A437C546BD46BDE8F08307335C
:10AFB000DB08A8EBC3039D460DF11009204607F1FD
:10AFC0000A0249460323FFF7A5FD04460028E9D1FC
:10AFD000A979AB786A78039169790291297901910D
:10AFE0003D483E49ED780095012E08BF014607F126
:10AFF0000C0014F047F83A4B07F10C0107F13C0044
:10B00000012205F077F807F13C0005F03DF9002832
:10B01000C8D0214607F13C0005F0B4F807F13C0028
:10B0200004F03EFF041E08DD07F13C0005F0C8F8FF
:10B03000211807F13C0005F0A5F807F13C0004F0E9
:10B040002FFF041E08DD07F13C0005F0B9F82118B8
:10B0500007F13C0005F096F807F13C0004F020FFF2
:10B060007C8980B2A04213D0E1B207F13C0004F029
:10B0700045FF2246494607F13C0004F07DFE07F1FA
:10B080003C0005F0D5F8A437C546BD46BDE8F083C1
:10B09000E31D6D46DB08A5EBC3039D4604A92246CC
:10B0A00007F13C00796005F04DF879687A894846E7
:10B0B00013F02CF908B9AD46E1E707F13C0005F0C3
:10B0C0009BF87B89DB43191807F13C0005F05AF81F
:10B0D000AD467C89C8E700BF441A0400741A040016
:10B0E0006479002038B590F8E8500DB1284638BD95
:10B0F000012380F8E83004460FF032FF0028F5D134
:10B100002046BDE8384000F0ADB800BF10B5044C93
:10B11000204600F0A3F8002384F8E83010BD00BFFB
:10B12000306C002003680A689A4201D00020704702
:10B1300070B5044684B04FF453700D460AF070FEAB
:10B140000646B0B10C4800F0ABF8234604350021A8
:10B1500053F8042B0095CDE9016108490FF09AFDE1
:10B16000044630460AF076FEB4FA84F0400904B092
:10B1700070BD002004B070BD306C0020719A0300D7
:10B18000F0B585B006464FF453700D46174603934D
:10B190000AF046FE78B1044600903A46281D311D5B
:10B1A00003AB0FF0F5FD054620460AF053FE15B936
:10B1B000039805B0F0BD002005B0F0BD002202608C
:10B1C000704700BF10B5044608460FF053FE2060DC
:10B1D000003818BF012010BD00220260704700BF78
:10B1E00010B5044608460FF045FE2060003818BF31
:10B1F000012010BD00230360704700BF00B583B07D
:10B200000430019201AB0A4604210FF0BDFC18B9CD
:10B21000019803B05DF804FB002003B05DF804FB67
:10B22000F0B5044683B04FF463700E4617460AF03B
:10B23000F7FD054678B1019054F8040B00943A46A6
:10B24000314601230FF0DCFB044628460AF002FEDB
:10B25000B4FA84F0400903B0F0BD00BF002280F8CA
:10B26000E420704770B590F8E4400CB1204670BD02
:10B27000012380F8E43005464FF4BF500AF0D0FDBA
:10B2800006460028F2D0314628460EF0DDFD044681
:10B29000B4FA84F4304664090AF0DCFD204670BD3F
:10B2A000704700BF0146014800F056BA3C6D0020CF
:10B2B00038B500F097F940B1002405462046013426
:10B2C00000F0C8FDE0B28542F9D838BD70B592B043
:10B2D0001D460C46164601A84222002113F04CF8E8
:10B2E000412D5CD9631C0222DBB28DF806408DF83B
:10B2F0000E408DF8264040F6083540F202248DF8C5
:10B300001E308DF827308DF83130ADF804508DF8AF
:10B3100007208DF812208DF833208DF83B20ADF8F2
:10B320000840204A069240F2012505232424ADF866
:10B3300010508DF815308DF8164004231A4C8DF8F6
:10B340001F30012540F224628DF81C508DF83030FA
:10B350000894ADF82420154D0A9508234FF4116484
:10B360000A228DF82C30ADF82E4040238DF8342081
:10B370000F4C8DF83C3001A9304640F2075540F2A1
:10B3800009464222ADF80C60ADF838508DF84330D4
:10B39000CDF83F4012F0C8FF422012B070BD00202F
:10B3A00012B070BD200105242402020507058003A8
:10B3B00007058002007EFF280AD010B500F0F8FCD7
:10B3C000044608B1204610BD0DF01CFA204610BD01
:10B3D00000207047007EFF280ED000B583B00DF12D
:10B3E000070100F02DFD20B19DF8070003B05DF8C6
:10B3F00004FB4FF0FF30F9E74FF0FF30704700BF1C
:10B40000007EFF280FD000B583B001220DF10701A7
:10B4100000F0DAFC20B19DF8070003B05DF804FBF2
:10B420004FF0FF30F9E74FF0FF307047007EFF2804
:10B4300001D000F00FBD7047007EFF2801D000F062
:10B4400069BD0020704700BFF8B50646007EFF28A2
:10B450001CD017465AB10D46144600F083FC29460D
:10B46000224680B1307E00F039FD241A01D13846E1
:10B47000F8BD05440DF0C6F9307E00F073FC294696
:10B4800022460028EED13F1B3846F1E70020F8BDE8
:10B4900070B50368184A5B6882B093428DF8071054
:10B4A00021D10546007EFF2823D000F05BFC0DF182
:10B4B000070601243146224688B1287E00F00EFDA1
:10B4C000241A02D1012002B070BD06440DF09AF991
:10B4D000287E00F047FC314622460028EDD1C4F119
:10B4E000010002B070BD01220DF10701984702B0C2
:10B4F00070BD002002B070BD49B4020070B592B0BA
:10B500001D460C46164601A84222002112F034FFC7
:10B51000412D5CD9631C0222DBB28DF806408DF808
:10B520000E408DF8264040F6083540F202248DF892
:10B530001E308DF827308DF83130ADF804508DF87D
:10B5400007208DF812208DF833208DF83B20ADF8C0
:10B550000840204A069240F2012505232424ADF834
:10B5600010508DF815308DF8164004231A4C8DF8C4
:10B570001F30012540F224628DF81C508DF83030C8
:10B580000894ADF82420154D0A9508234FF4116452
:10B590000A228DF82C30ADF82E4040238DF834204F
:10B5A0000F4C8DF83C3001A9304640F2075540F26F
:10B5B00009464222ADF80C60ADF838508DF84330A2
:10B5C000CDF83F4012F0B0FE422012B070BD002016
:10B5D00012B070BD20010524240202050705800376
:10B5E00007058002014B1878704700BF386D0020B6
:10B5F000037EFF2B02D1074B1A7802B17047064930
:10B6000002764161012200F1100104481A7000F035
:10B6100043B800BF386D0020C41A04003C6D002000
:10B62000007EFF280ED000B583B000F09BFB10B168
:10B6300003B05DF804FB01900DF0E4F8019803B04D
:10B640005DF804FB0020704701B900B1704700B5F8
:10B6500083B0694600F09CFB009BB3F5966F02D067
:10B6600003B05DF804FB00F029FBF9E730B4084BA8
:10B67000084AFF2002F108054FF47A7400213032A5
:10B6800018761D609C601A6130BC59605961704722
:10B690001C6D0020D41A0400F8B50546B0F8180156
:10B6A0006C69B5F81A310A680E4604441B1A17680B
:10B6B00095F81C119BB222463046B84750B3221869
:10B6C00094423CD2766806E0052B25D023780BB354
:10B6D0001C44A24233D96378042BF5D1E378002BC4
:10B6E000F4D195F81C11013185F81C11002EEDD014
:10B6F00095F840110729E9D801F1480745F8276076
:10B70000217295F84011013185F840111E462378C9
:10B71000002BDDD10020F8BD94F90230002B08DBAE
:10B7200095F81E31591C85F81E11A1780B43A370A2
:10B73000CCE795F81D31591C85F81D11F5E7B5F8D2
:10B7400018216B69104480B2A5F81801588095F84B
:10B750001C211A710120F8BD2DE9F043284DDFF8B6
:10B76000B090AC4604468846BCE80F0089B003AFF1
:10B770000FC703AE0FCE05F1140E25460FC59EE888
:10B780000700DCF800303B806B4636682E8003C330
:10B790006B4603CB1B4EA06104F118034FF4807C71
:10B7A0000125E16184F82020636140F2EF2200234B
:10B7B0001548C4F8189140F209470421A4F81CC1A7
:10B7C000C4F8280184F84011A280C4F82C31C4F8D0
:10B7D0003031C4F83431C4F83831C4F83C314FF456
:10B7E000E131C4E94876094884F81E51A571FFF794
:10B7F000FFFE404600F050FA284609B0BDE8F0834D
:10B80000241B0400081B0400D81904001C6D002030
:10B81000090000012DE9F04F04468BB0002900F02B
:10B820009180032900F09C8090F840318B4240F2D7
:10B83000CB80483100F5A27550F821603278002A9B
:10B8400000F0E78000231946374603E00131725CBF
:10B850007718CAB102F14000C0B20128F6D9F42A23
:10B86000F4D8100618D40120A2F55847B7F5006F98
:10B87000ECD30144202B00F0C98025F81320725C22
:10B8800001337718002AE5D1DBB201335B0043F4C2
:10B89000407304F5A17C5DE002F0E000C02800F0F8
:10B8A000A18002F0F000E02800F0918002F0F800A2
:10B8B000F028CBD102F007024FF0040E787800F0A8
:10B8C000C00CBCF1800FC1D197F802C00CF0C008C9
:10B8D00000F03F00B8F1800F40EA8212B6D10CF0C0
:10B8E0003F0CBEF1030F4CEA821275D0F87800F0DD
:10B8F000C007802FAAD100F03F0040EA8212A2F5D3
:10B900008030B0F5801F38BF4FF0040E9ED2A2F5F4
:10B910005840B0F5006F99D3B2F5803F7144A9D378
:10B920001E2BB1DCA2F580325800970A2844C2F3DE
:10B930000902A7F52057A2F5105225F8137042808E
:10B94000023384E7D0F82031A0F8443100F5A17C1F
:10B950004FF44173A4F8423160460BB0BDE8F08F5C
:10B9600002A800F0ADF904F5A17C019020B300F12C
:10B97000FF3B5FFA8BF3284F04F1040B0DF1080A2B
:10B980000BEB830BA64606AE97E80F001AF8018B67
:10B9900086E80F0008F00F090AADA94405EB181856
:10B9A00019F8109C18F8103CAEF84691AEF84431E6
:10B9B0000EF1040EDE45E7D1019B5B00DBB20133E3
:10B9C0005B0043F44073C5E74FF0000CC4E702F09E
:10B9D0000F024FF0030E71E7A2F50060B0F5784F4B
:10B9E00095D333E7787800F0C007802F02F01F026C
:10B9F0007FF42CAF00F03F0040EA8212A2F18000F9
:10BA0000B0F5F06FBFF422AF02202DE740F24233D1
:10BA10003FE740F202333CE7101B04000048704748
:10BA20003C6D0020014B5869704700BF3C6D002001
:10BA30000A4601460148FFF7EDBE00BF3C6D0020FD
:10BA4000024B186800B10069704700BFC06E00204B
:10BA500030B40848BDF80850046844B1646934B192
:10BA60000846A44611461A462B4630BC60470020C3
:10BA700030BC7047C06E002030B40848BDF8085094
:10BA8000046844B1A46934B10846A44611461A4674
:10BA90002B4630BC604730BC704700BFC06E0020F2
:10BAA000024B186808B190F850007047C46E00202F
:10BAB0002DE9F047244C2568002D42D01F4600EBAD
:10BAC000C00305EB83030446D3F818A089469046CB
:10BAD000C600BAF1000F30D0504613F028FB0828FA
:10BAE000024628BF0822344405EB8405D5E90764E3
:10BAF000DFF85CC0154B002E08BF6646514648462D
:10BB0000002C08BF1C4612F00FFC304613F00FFB50
:10BB100010280246314628BF1022404612F004FC8D
:10BB2000204613F004FB042802462146384628BF6D
:10BB30000422BDE8F04712F0F7BBDFF818A0082296
:10BB4000D1E7BDE8F08700BFC46E0020601B040091
:10BB5000501B0400441B0400F8B50B4F3B688BB12D
:10BB600000EBC00503EB850504466A69C6001AB1FF
:10BB700090473B6885F82A00344403EB840393F82C
:10BB80002A00F8BD1846F8BDC46E0020074B1B689C
:10BB90005BB100EBC00003EB800010B4038D446A7E
:10BBA0000C605DF8044B138070477047C46E002032
:10BBB0000A781E2A01D10020704710B520221C46A9
:10BBC0000521002300F078FF204610BD30B4094C59
:10BBD000029A256855B1044604EBC40405EB8404BD
:10BBE00008461946A3680BB130BC18474FF0FF3028
:10BBF00030BC7047C46E002030B4094C029A2568EE
:10BC000055B1044604EBC40405EB84040846194608
:10BC1000E3680BB130BC18474FF0FF3030BC7047C1
:10BC2000C46E0020054B1B6833B100EBC00003EB72
:10BC30008000036903B11847704700BFC46E00203D
:10BC400000B5104B402283B083F8272303F030FF68
:10BC50004FF080430024D3F838548DF800406846F4
:10BC60000CF02AFC084B019301A80CF075FC0CF0B9
:10BC70007FFCEB0702D401F009FFFCE7204603F04C
:10BC800053FDF8E700E100E08DBC020003F04CBD7D
:10BC9000002003F029BA00BF00B5002383B00322BF
:10BCA000CDE9002303490448C8220BF0B9F803B0DA
:10BCB0005DF804FB641B040041BC02000CF0E6BF0D
:10BCC0004FF08052536E1BBA0360136E1BBA436071
:10BCD00008207047004870476C1B040070B51F4D6A
:10BCE0002B68B3B199B91478C4F34114012C0BD06B
:10BCF000022C07D15478012C0DD0022C07D1938847
:10BD0000072B21D0084670BD517822290CD0012084
:10BD100070BD184670BDDC69F4B123781146224627
:10BD2000BDE8704002F070BE5188003918BF012193
:10BD30001976114602F04EFE2A68136A002BE6D0EF
:10BD4000107E9847204670BD054C11462389224637
:10BD5000BDE8704002F058BE204670BDC86E00209D
:10BD60000460002010B5044601F0ECFD08B9002085
:10BD700010BD01F0EFFD0028F9D104484FF45A73CB
:10BD800003FB0400007900F0010010BDCC6E002020
:10BD9000064B4FF45A7202FB003050F8063F0B601E
:10BDA000838882798A718B80704700BFCC6E0020B7
:10BDB00008B5044B4FF45A7202FB0030103001F00A
:10BDC00025FC08BDCC6E00202DE9F0414FF45A75DA
:10BDD00005FB00F5194F05F110043C4492B22046D2
:10BDE00001F040FC0646204601F02AFC3F2802D81C
:10BDF0003046BDE8F08107EB0508002098F80310F5
:10BE000002F01EFD0028F3D0204601F019FC3F2867
:10BE10000BD905F53A7298F803103A4440230020F4
:10BE200002F072FD3046BDE8F08198F80310002062
:10BE300002F03EFD3046BDE8F08100BFCC6E002030
:10BE4000034B4FF45A7202FB0030103001F07CBCFF
:10BE5000CC6E00202DE9F041044601F073FD10B9CD
:10BE60000020BDE8F08101F075FD06460028F7D1FD
:10BE70004FF45A71DFF8608001FB04F404F12C05E3
:10BE80004544284601F0C2FB0028E9D008EB04072E
:10BE90003046B97802F0D4FC0028E1D004F54A74A9
:10BEA000444428462146402201F0DCFB054660B1AF
:10BEB000B978224630462B4602F026FD40B9054BA4
:10BEC0001B68DB07CCD500BECBE7B97802F0F0FCED
:10BED0002846C6E7F0ED00E0CC6E002038B50C4BEC
:10BEE0004FF45A7404FB00342C3492B205462046B9
:10BEF00001F06AFC034620461C4601F087FB3F2800
:10BF000001D8204638BD2846FFF7A4FF204638BD9B
:10BF1000CC6E002008B5044B4FF45A7202FB00307F
:10BF20002C3001F08DFB08BDCC6E0020F0B51C4C10
:10BF300083B000214FF45A72204601250E4612F0BC
:10BF40001BFAFF234FF4424204F148016371E2807F
:10BF50002B460827009604F110004FF480722773D7
:10BF60002581668101F016FB2B464FF4807204F5A3
:10BF7000A471009504F12C0001F00CFB04F5127182
:10BF800028460AF0F3F904F5267103462846C4E969
:10BF900009630AF0EBF9C4E9100603B0F0BD00BF75
:10BFA000CC6E002010B5094B002203F12C0403F1E4
:10BFB00010001A601A7101F07DFC204601F07AFC35
:10BFC00020460121BDE8104001F09CBCCC6E002051
:10BFD0002DE9F0414B79022B82B002D18B79022BF3
:10BFE00004D00025284602B0BDE8F081314FBB786F
:10BFF0002BB1314B1B68DB07F3D500BEF1E78B7823
:10C000003B700C780C440646617824294FF00905F2
:10C010000BD1082A02D80FE0AA420DD323781C4482
:10C020002B44617824299DB2F6D005291BD0042920
:10C0300002D163790A2B28D0204801F001FB3F2868
:10C04000D0D9F978002002F0FBFB0028CAD01B48A9
:10C0500001F0F6FA3F28F97813D9194A4023002055
:10C0600002F052FCBEE72146304602F0C9FB002830
:10C07000BFD0A3787B7023781C442B4461789DB299
:10C08000D5E7002002F014FCACE70E4A94F80080DB
:10C090000192022301320092304604EB08011A4655
:10C0A00002F03AFB0028A4D005F10E0318FA83F33E
:10C0B0009DB2C1E7CC6E0020F0ED00E0DC6E002008
:10C0C000B4710020CE6E002038B5137803F0600301
:10C0D000202B0CD1264C938825789D4207D153788C
:10C0E000203B032B03D8DFE803F009151E040020D2
:10C0F00038BD71B3022931D0012038BD61B10229A8
:10C10000FAD11C4B002BF7D01B490020AFF3008065
:10C11000012038BD0029EFD111460723164A02F04D
:10C1200073FC012038BDA1B10229E5D155882571E4
:10C1300005F00104114884F0010101F0E3FB104B0C
:10C14000002BD9D0C5F3400221460020FFF77CFA2E
:10C15000D2E7114602F03EFC012038BD094B002B0E
:10C16000CAD051880020AFF30080012038BD00BF45
:10C17000CC6E002000000000D26E0020F86E00207F
:10C1800049B60200000000002DE9F047574DEA785B
:10C190008A420C4607461E465CD19AB205F53A71B2
:10C1A00005F1100001F010FB514BD3B16B79FF2B5F
:10C1B00017D0B6B105F2E72808EB060AA8F2D7298E
:10C1C00002E0D0450DD06B7918F8012F9A42F8D1D2
:10C1D000484601F02BFA0028F3D16979AFF30080CB
:10C1E000EFE7444B23B1444801F020FA002870D017
:10C1F000414801F025FA3F2805D9E978002002F0EE
:10C200001FFB002858D1AB789C4203D00124204664
:10C21000BDE8F087394B13B10020AFF3008001F087
:10C2200091FB20BB364801F0F1F90028EED1002E39
:10C23000ECD016F03F06E9D1A978384602F000FBB1
:10C2400004460028E2D0A97838463346324602F048
:10C250005BFBDCE7AB788B42DCD02A4B1C6814F02C
:10C260000104D4D000BE00242046BDE8F08701F0D0
:10C2700071FB04460028D5D1214801F0C7F90028F8
:10C28000D0D0A978204602F0DBFA0028CAD01E4997
:10C290004022A1F53F7001F0E5F9034608B31A4AC0
:10C2A000A978204602F030FB0028AFD1154B1B685F
:10C2B000DB07B7D500BEB5E70F4801F0C1F93F284D
:10C2C0000AD94023114AE978002002F01DFBAB781F
:10C2D0009AE7AFF300808BE7E978002002F0E8FAF4
:10C2E00091E7A97802F0E4FA9CE700BFCC6E002049
:10C2F0000000000000000000DC6E002000000000D4
:10C30000F86E0020F0ED00E0F4710020B471002020
:10C3100002488C22002112F02FB800BF3472002096
:10C3200002488C22002112F027B800BF347200208E
:10C330002DE9F0414B79032B82B011D10F79C7EB76
:10C34000C7051235ADB295420C4604D8DFF89C8083
:10C3500098F8011049B1234B1B68DA0700D500BEDD
:10C360000025284602B0BDE8F08194F800C004EB37
:10C370000C0292F801E0BEF1210FECD1C8F8882040
:10C3800014F80C1008F1010E08F1020C1144CDE96B
:10C3900000CE3A46064602F0BFF90028DBD0A3796A
:10C3A00098F80210012B04BFE37988F803300122CA
:10C3B000D8F8883088F80420A278B3F8073088F8D5
:10C3C0000020A8F806300029CBD0074A3046402389
:10C3D00002F09AFA0028C4D1024B1B68DB07C0D5D3
:10C3E00000BEBEE7F0ED00E07C7200203472002059
:10C3F000F0B51446127802F01F05012D83B00FD15D
:10C400000B467149A78891F800C0FFB2BC4507D11F
:10C4100012F06002064606D183BB6278062A30D04D
:10C42000002003B0F0BD202AFAD16278013A0A2A2E
:10C43000F6D801A050F822F00DC50200F9C40200A0
:10C44000E5C4020021C4020021C4020021C402008C
:10C4500021C4020021C40200CDC40200A7C402000E
:10C4600065C4020063B3022B08D16388574ADBB26C
:10C470000B711AB119460020AFF30080012003B000
:10C48000F0BD6288120A212A65D0222AC8D1184636
:10C49000FFF7D6FA4C490246CB883046214602F0D7
:10C4A000B3FA2846BDE7002BE8D162884848120A53
:10C4B0004A7128B111461846AFF300800028AFD06A
:10C4C0002146304602F086FA0120AAE7002B4ED121
:10C4D000E388402BA4D83F4A2146304602F094FA24
:10C4E00001209EE7002BC9D13B4A2146304601235B
:10C4F00002F08AFA012094E7002BBFD1374A214687
:10C500003046012302F080FA01208AE7002BB5D1E2
:10C51000E5886088402D4FEA10222F4628BF40272B
:10C5200010F0FF003ED0012D46D9013F08722C4982
:10C53000BFB201250B46009701460020FFF788FA9D
:10C540002B189BB28BBB274A1268D2077FF568AFC6
:10C5500000BE184665E7D1F88820002A3FF460AF96
:10C560001378214603B0BDE8F04002F04DBA022B2B
:10C5700084D1E5886388402D2C4628BF402413F0E1
:10C58000FF004FEA132205D0012D03D991F848305E
:10C59000834214D00F4B009401460020FFF76CFA41
:10C5A00001203EE710491D46C4E70F4A21463046A8
:10C5B00002F02AFA012034E70B491D46BAE7013C94
:10C5C0000A4BA4B2E7E700BF34720020000000006D
:10C5D000000000007C7200203872002039720020B8
:10C5E0003D720020F0ED00E03C7200207D720020E2
:10C5F00030B51C4CA2788A4283B00CD1617891424C
:10C6000017D1194A22B11949DAB20020AFF30080DC
:10C61000012003B030BD62788A42F2D0144B1B680F
:10C62000DB0703D500BE002003B030BD002003B0FF
:10C6300030BD00229BB2114605460093104604F11E
:10C640004803FFF719FAA1782846402304F148026D
:10C6500002F05AF90028DBD1054B1B68DA07E5D553
:10C6600000BED6E734720020000000003C720020BB
:10C67000F0ED00E070B500F12C050446284600F00E
:10C68000C5FF08B9002070BD6178002002F0D8F81D
:10C690000028F7D004F50A7628463146402200F0FB
:10C6A000E1FF054660B1034661783246002002F0A2
:10C6B0002BF940B9054B1B68DB07E3D500BE70BD05
:10C6C000617802F0F5F8284670BD00BFF0ED00E09B
:10C6D00030B5164C83B000210D464FF41A72204637
:10C6E00011F04AFE04F1480104F110000095012305
:10C6F000802200F04FFF802204F1C8010123009541
:10C7000004F12C0000F046FF04F5A471012009F0AB
:10C710002DFE04F5CC7103460120C4E9095309F04C
:10C7200025FEC4E9100503B030BD00BF68940020A9
:10C7300010B5084C002304F11000C4E90033C4E92B
:10C74000023301F0B7F804F12C00BDE8104001F00D
:10C75000B1B800BF689400202DE9F0434B79012B5C
:10C7600083B002D18B79012B04D00025284603B079
:10C77000BDE8F083CB79002BF7D10B78CC180646B7
:10C780006578242D99B20BD1914202D9EDE78A4206
:10C79000EBD323781C440B446578242D99B2F6D052
:10C7A000042DE2D16379012BDFD1A379032BDCD1F6
:10C7B000E579002DD9D1DFF8CC8098F8010098F800
:10C7C000023050EA030905D02B4B1B68DB07CCD5A0
:10C7D00000BECBE7A37888F8003027782079CB1902
:10C7E0009DB2274430B922E03B7881451D44ADB26B
:10C7F0001F441CD2AA421AD37B78052BF4D13946A8
:10C800003046019201F0FCFF019A68B3BB782079B1
:10C81000D90914BF88F8013088F80230397809F155
:10C8200001030D445FFA83F9ADB20F44DCE713480E
:10C8300000F006FF3F2899D998F80210002001F077
:10C84000FFFF002892D00D4800F0FAFE3F2898F82C
:10C85000021005D90A4A4023002002F055F885E766
:10C86000002002F025F881E7034B1B68DA077FF50B
:10C870007CAF00BE054679E7F0ED00E0789400203B
:10C88000509600206894002000207047F8B52D4D88
:10C89000AA788A421E4619D19AB205F5F47105F1BB
:10C8A000100000F091FF284B13B10020AFF300807F
:10C8B000264800F0C5FE3F2805D9A978002001F0E0
:10C8C000BFFF044668BB01242046F8BD6B788B424D
:10C8D00008D01F4B1C6814F00104F5D000BE0024E2
:10C8E0002046F8BD07462846FFF7C4FE0028EAD1D7
:10C8F00005F12C0000F08AFE0028E4D1002EE2D0E1
:10C9000016F03F06DFD16978384601F099FF0446FA
:10C910000028D8D0697838463346324601F0F4FF13
:10C92000D2E70A4800F08CFE3F28A97805D9094AC9
:10C930004023002001F0E8FFC6E7002001F0B8FF27
:10C94000C2E700BF68940020000000007894002037
:10C95000F0ED00E05096002070B52E4CE28AA368FE
:10C9600052BA92B282B0054612B1B3FBF2F292B261
:10C97000A06BD4F81110B0FBF2F61B1AB3F5007FD0
:10C9800028BF4FF4007309BA009302FB1602224B32
:10C99000607B3144FFF71AF9031E13DB09D094F8CA
:10C9A0002E101D4A9BB2284601F0AEFF58B302B0CC
:10C9B00070BD94F82E10009328461A4601F078FEB8
:10C9C00002B070BDA268A36B43F203300021D31AFA
:10C9D000A08784F83E1001200221A36284F82C0075
:10C9E00084F83010002AE2D0002BE0D0237BDB0952
:10C9F00014BF94F82E1094F82F10284602B0BDE80A
:10CA0000704001F0BDBF054B1B68DB07CFD500BEF2
:10CA1000CDE700BFC0740020C0720020F0ED00E040
:10CA200038B5214B214C05461BB1607BAFF300802C
:10CA3000B0B1A06BA36894F82F101D4A1B1AB3F570
:10CA4000007F28BF4FF4007328469BB201F05CFFC3
:10CA500000B138BD174B1B68DB07FAD500BE38BDE7
:10CA6000A26BA16884F83E008B1A42F20772012083
:10CA7000A2870222A36284F82C0084F830200029C7
:10CA8000E7D0002BE5D0237BDB0906D094F82E10ED
:10CA90002846BDE8384001F073BF94F82F102846AF
:10CAA000BDE8384001F06CBF00000000C0740020F9
:10CAB000C0720020F0ED00E0044880F83C1080F8DF
:10CAC0003D2080F83E300120704700BFC074002038
:10CAD00002484022002111F04FBC00BFC07400206A
