:020000022000DC
:1070000000000420798A0300B98A0300BB8A0300C8
:10701000BD8A0300BF8A0300C18A0300000000008C
:10702000000000000000000000000000F5890300DF
:10703000C58A030000000000158A0300C98A030006
:10704000D98C0300CB8A0300CB8A0300CB8A0300D0
:10705000CB8A0300CB8A0300CB8A0300CB8A0300D0
:10706000CB8A0300CB8A0300CB8A0300CB8A0300C0
:10707000CB8A0300CB8A0300CB8A0300CB8A0300B0
:10708000CB8A030045870300CB8A0300CB8A030029
:10709000CB8A0300CB8A0300B5AC0200CB8A030085
:1070A000CB8A0300CB8A0300CB8A0300CB8A030080
:1070B000CB8A0300CB8A0300000000000000000020
:1070C000CB8A0300CB8A0300CB8A0300CB8A030060
:1070D000CB8A0300CB8A0300CB8A0300E5BF020002
:1070E000CB8A0300CB8A0300CB8A03000000000098
:1070F00000000000CB8A030000000000CB8A0300E0
:10710000000000000000000000000000000000007F
:10711000000000000000000000000000000000006F
:10712000000000000000000000000000000000005F
:10713000000000000000000000000000000000004F
:10714000000000000000000000000000000000003F
:10715000000000000000000000000000000000002F
:10716000000000000000000000000000000000001F
:10717000000000000000000000000000000000000F
:1071800000000000000000000000000000000000FF
:1071900000000000000000000000000000000000EF
:1071A00000000000000000000000000000000000DF
:1071B00000000000000000000000000000000000CF
:1071C00000000000000000000000000000000000BF
:1071D00000000000000000000000000000000000AF
:1071E000000000000000000000000000000000009F
:1071F000000000000000000000000000000000008F
:10720000F1EE103A43F08073E1EE103A704700BFA0
:1072100010B5054C237833B9044B13B10448AFF3D0
:1072200000800123237010BD746300200000000063
:10723000EC49040008B5034B1BB103490348AFF305
:10724000008008BD0000000078630020EC490400C5
:10725000154B002B08BF134B9D46A3F5803A002128
:107260008B460F461348144A121A17F0EBFA0F4BCD
:10727000002B00D098470E4B002B00D098470020E1
:10728000002104000D000D48002802D00C48AFF387
:10729000008017F06DFA2000290011F045FC17F06E
:1072A00041FA00BF000008000000042000000000B8
:1072B00000000000746300202C97002000000000F4
:1072C0000000000038B51C4C1C4B20460125202135
:1072D0001D700EF0BDFD204609210EF0BFFD2046B9
:1072E00008210EF0BBFD204607210EF0B7FD204619
:1072F0000023102209210EF0B7FE2B462046102253
:1073000008210EF0B1FE00231022204607210EF0C6
:10731000ABFE0A21092012F0DBF90A21082012F045
:10732000D7F90A21072012F0D3F9BDE83840044903
:1073300004480EF0B7BF00BF588A00200864002040
:10734000881C04002C6D002008B501210B2012F0D0
:1073500043FA01210D2012F03FFABDE80840012157
:107360000C2012F039BA00BF70B53D4C3D493E4883
:10737000012323700EF096FF3C4B1B780BB9FFF7EF
:10738000A1FF3B4B1B7803F0FF05002B48D123786E
:1073900003F0FF06DBB1374C2378022B16D0012116
:1073A0000B2012F019FA01210D2012F015FA01211B
:1073B0000C2012F011FA304811F082FF29460C20FF
:1073C00012F00AFA2D4A02231560237070BD294D70
:1073D0002B78012B41D001210B2012F0FDF9012166
:1073E0000D2012F0F9F901210C2012F0F5F9234CCF
:1073F000214811F065FF012326602B700FF080F803
:107400002268821AB2F57A6F0346DFD30D2000217D
:10741000236012F0E1F9BDE87040174811F01CBF7D
:10742000144C2378032BD1D001210B2012F0D4F976
:1074300001210D2012F0D0F901210C2012F0CCF91D
:107440000D4811F03DFF00210B2012F0C5F90B4A49
:10745000032300212370116070BD084CCEE700BFEC
:10746000A2630020C41C04002C6D002008640020CE
:107470001A640020A363002098630020906300201A
:10748000704700BF10B500202DED048B12F0F2F80C
:107490000346022008EE103A12F0ECF807EE900ACC
:1074A0000120F8EE678A12F0E5F89FED229ADFEDF1
:1074B000225ADFED226ADFED227A2249224C234A4A
:1074C00006EE100AB8EE487A68EE898A27EE257A29
:1074D000B8EE466A68EEA65A26EE096A67EE277A83
:1074E00066EE266AFCEEE77AFCEEE55AFCEEE66A0A
:1074F00017EE903A15EE900A9BB2088016EE901A9D
:107500000A2B238011800DD978EEC68A104AC8EE66
:10751000877ABDEC048BFCEEE77A17EE903A9BB2CB
:10752000138010BDBDEC048B094A4FF6FF73138026
:1075300010BD00BF890E8C3CEF7A583600007A44AB
:107540000024744994630020FC6300200A64002036
:10755000A063002070B5224A2249234C2348244BC3
:107560001288098825881B880488224886B0ADF8CF
:107570000C20ADF80E100A2203A9ADF81050ADF89A
:107580001240ADF8143001F069FA1B4A1B491C483F
:107590001C4B158812880E880988048800888DF88D
:1075A00004501D881B888DF80660C2F30722C1F3C2
:1075B0000721C0F30720C3F307238DF805208DF8BA
:1075C00007108DF80900082201A90F488DF808401E
:1075D0008DF80B308DF80A5001F040FA06B070BDFE
:1075E00020640020FC630020946300200A640020D3
:1075F000A0630020A4630020226400203C640020DB
:10760000186400200C6400204064002010B53B4C3E
:10761000FFF738FFFFF79EFF237883B9384B1B78BD
:1076200003F0FF01002B4ED0364B322239210A20C5
:107630001A8011F0EBFE0A21084612F049F823786F
:107640001BB92F4B1B78002B3CD02F492F480EF035
:10765000DBFD2C4B2D4819880A220EF02FFF2C49F8
:107660002A480EF0D1FD2B4B284819880A220EF02B
:1076700025FF294925480EF0C7FD284B23481988C6
:107680000A220EF01BFF264920480EF0BDFD254BB7
:107690001E4819880A220EF011FF23491B480EF0DC
:1076A000B3FD224B194819880A220EF007FF204922
:1076B00016480EF0A9FD23785BB9BDE810401348C9
:1076C0000EF0D0BD10BD0F4B0A20198011F09EFEA8
:1076D000B5E718490D480EF097FD174B0B48198870
:1076E0000A2289B20EF0EAFE144908480EF08CFD19
:1076F000BDE8104005480EF0B5BD00BF1A6400207B
:10770000A263002020640020E41C04002C6D0020F3
:10771000EC1C0400FC630020F41C0400A0630020A7
:10772000FC1C040094630020081D04000A6400206F
:10773000141D0400181D04003C6400201C1D0400DE
:10774000384B1B7870B5002B42D103F0FF04364B49
:107750001B7803F0FF06FBB9344D2B78012B5ED06C
:1077600001210B2012F038F801210D2012F034F81D
:1077700001210C2012F030F82D4C2E4811F0A0FD04
:10778000012326602B700EF0BBFE2268821AB2F530
:107790007A6F034639D270BD244D2B78022BFAD074
:1077A00001210B2012F018F801210D2012F014F81D
:1077B00001210C2012F010F81E4811F081FD214625
:1077C0000C2012F009F81A4A022314602B7070BDC5
:1077D000164C2378032BDED001210B2011F0FCFF87
:1077E00001210D2011F0F8FF01210C2011F0F4FF10
:1077F000104811F065FD00210B2011F0EDFF0C4A3F
:10780000032300212370116070BD0D20002123602F
:1078100011F0E2FFBDE87040064811F01DBD044CB8
:10782000B1E700BF1A640020A2630020A363002018
:10783000906300209863002038B5234B23480C4602
:10784000002523491D700EF0DFFC21460A221F4847
:107850000EF004FE29461F4800F08CFC1E4B1978E0
:1078600011B91E4D2B781BB9BDE83840FFF768BF32
:1078700001F0FF0423462246092119482C700EF01E
:10788000F3FB23462246082115480EF0EDFB234664
:107890002246072112480EF0E7FB092110480EF09E
:1078A0004DFB08210E480EF049FB07210C480EF055
:1078B00045FB0B480EF0B8FA0A4904480EF0F2FCFA
:1078C000BDE83840FFF73CBFA26300202C6D0020CC
:1078D000201D0400F46A00201A64002008640020BF
:1078E000588A0020D41C0400072B64D9F8B55578B9
:1078F0001478D67957799379117992F803C09078F2
:1079000044EA05244C4D43EA06232C804B4E4C4C54
:1079100041EA07224B4F40EA0C20308022803B8016
:1079200033889BB21BB12B889BB2002B44D1464BB2
:107930004649474A474800240C7014801C8011F0C7
:10794000BFFC21460A2011F061FD434B197801F07C
:10795000FF0441BB414D2B782BB32346224609211E
:107960003F482C700EF080FB2346224608213C48FD
:107970000EF07AFB23462246072139480EF074FBAD
:10798000092137480EF0DAFA082135480EF0D6FA08
:10799000072133480EF0D2FA31480EF045FA31494A
:1079A00031480EF07FFCFFF7CBFEBDE8F8402F49D1
:1079B0002D480EF077BC70473388234A9BB2138062
:1079C0000EF09EFD2A49214A0860244B01211170C6
:1079D0001B780BB9FFF776FC1E4811F03DFCFFF752
:1079E000AFFE244920480EF00FFC29881E480A22C9
:1079F00089B20EF063FD20491B480EF005FC31886A
:107A000019480A2289B20EF059FD1C4916480EF099
:107A1000FBFB218814480A2289B20EF04FFD184959
:107A200011480EF0F1FB39880F48BDE8F84089B2E3
:107A30000A220EF0EDBC00BF2264002098640020F2
:107A4000186400200C6400203C6400201A640020AC
:107A50002064002010640020A2630020086400203D
:107A6000588A0020D41C04002C6D0020641D0400E2
:107A70001C6400203C1D04004C1D0400541D040027
:107A8000601D0400000000002DE9F0470EF038FDF5
:107A90006D4BDFF8F4E1D3F800C06C4EBEF8004047
:107AA0006B4A31886B4FA0EB0C054FF47A7AA4B285
:107AB000A2FB05320AFB04F389B29D42B7F80080AD
:107AC0000AFB01F173D24FEA9219BEF80020DFF8E9
:107AD000BCE11FFA88F4A2EB0902DFF8888192B2B8
:107AE000A8F80020BEF8002063448D42A3EB0003F9
:107AF00090B240D2328892B2002A3CD0BEF8000048
:107B000080B205FB00F0B0FBF1F080B2524B188060
:107B1000002846D016F08AFB47A3D3E9002319F0CA
:107B200095FD16F0EDFBDFED4D7A07EE100A67EEDE
:107B3000277A17EE900A16F08BFB41A3D3E90023B6
:107B400016F028FA16F0DCFBDFED457A07EE100A96
:107B500067EE277A0A20FCEEE77A17EE903A99B2A0
:107B6000FF2928BFFF2111F051FC0A21BDE8F04791
:107B7000084611F0ADBD4FF47A7101FB04F49C424C
:107B8000C4D93A8892B2002AC0D0BEF8000080B2B0
:107B900003FB00F3B3FBF4F42F4BA0B218800028D2
:107BA000B8D10146BDE8F0470A2011F02FBC2D4B9B
:107BB0002D49294A2D4800240C7014801C8011F096
:107BC0007FFB21460A2011F021FC294B197801F096
:107BD000FF0411B9274D2B783BB9FFF7B1FDBDE884
:107BE000F047254925480EF05DBB23462246092172
:107BF00023482C700EF038FA2346224608212048EC
:107C00000EF032FA2346224607211D480EF02CFAC8
:107C100009211B480EF092F9082119480EF08EF93F
:107C2000072117480EF08AF915480EF0FDF815499E
:107C300012480EF037FBD0E78DEDB5A0F7C6B03E89
:107C4000666666666666E63F1C640020186400206F
:107C5000D34D62100C6400202064002000007A44A0
:107C6000A38B9A423C6400201A6400201064002018
:107C7000A263002008640020741D04002C6D002005
:107C8000588A0020D41C040098640020226400203C
:107C9000024B1B7803B97047FFF7F6BE1A64002049
:107CA00030B5534883B04FF4E131044640F6B73560
:107CB00003F048FE03E00EF023FCA84204D820465F
:107CC00003F058FE0028F6D04A4949480EF0EAFA77
:107CD00049494A480EF018FA082011F077FB0121B3
:107CE0000A2011F0F5FC00210A2011F08FFB012180
:107CF0000B2011F0EDFC01210D2011F0E9FC012118
:107D00000C2011F0E5FC01210B2011F065FD012193
:107D10000D2011F061FD01210C2011F05DFD0A2004
:107D200011F0A2FC00220121354802F06DFD34481B
:107D3000002102F075FF6FF00301314802F022FFCD
:107D400030492F4802F0F6FE2F492D4801F05AFB2A
:107D50002E492B4801F058FB2D4802F02FFA2D48F0
:107D600000F078FB01222C492C4800F069FE2B48DA
:107D700000F070FB06212A4800F06EF924492848DB
:107D800000F026F9264800F039F94FF4C86224487B
:107D9000A02100F08FF922481E2100F089F901246A
:107DA00000211F4800F0E6F91E4A1F4800940023F6
:107DB000142111F039FA1D4A1D48009400234FF494
:107DC000FA7111F031FA1A4811F046FA0023194AF3
:107DD00000931948322111F027FAFFF7B1FC174937
:107DE00003480EF05FFA03B0BDE8304010F0CABEA1
:107DF0002C6D0020881D0400544C554D588A0020DD
:107E0000B4640020A41D04006973020039780200E4
:107E100024640020A4630020E9780200406400206C
:107E2000F46A0020917C0200106400200D760200AC
:107E3000006400204973020098630020AC1D040018
:107E400010B5044B044640F8083B02F0F3F9204615
:107E500010BD00BF881E04002DE9F043DFF8E49058
:107E60002D4C2E4F2E4E2F4DDFF8DC8087B048462C
:107E700011F0D2F922462C49484616F07FF83846D0
:107E800011F0CAF922462849384616F077F83046EC
:107E900011F0C2F922462449304616F06FF8234902
:107EA000234E02A802F0DCF902A9284602F0A2F94A
:107EB00002A802F0BFF922461E49284616F05EF8D5
:107EC00000271D491D4D02A802F0CAF90A2302A984
:107ED00012224046009700F071FD02A802F0AAF9B4
:107EE00022463146404616F049F8154902A802F0EC
:107EF000B7F902A908231A220097284600F05EFD70
:107F000002A802F097F922463146284616F036F8C4
:107F100007B0BDE8F08300BF0060002000640020CF
:107F20009863002024640020C9910300D41D04003C
:107F300021840200417E0200FC1D040040640020F8
:107F4000241E040010640020A463002072DF704728
:107F500073DF704777DF704738B5054608460C4633
:107F600002F09EF9102803D080280ED0012038BDE1
:107F7000EB7FA2881B2B0EDCE9180320E854487025
:107F80004A80EB7F0433EB77F0E7A368002BEDD05A
:107F9000E97F0D2901DD002038BD6A1811206854E1
:107FA0000721517058681C689968DB68C2F80E3068
:107FB000C2F80600C2F80240C2F80A10EB7F123382
:107FC000EB77012038BD00BF0022C27702707047F6
:107FD00030B5D1E9042485B0CD68074B00936946DC
:107FE000CDE902240195FFF7B7FF0446684602F089
:107FF00021F9204605B030BDA01E0400F0B589B0BF
:10800000064620221348694602F0A8FDF37FC218F5
:108010001D2A0CDDC3F11D04E4B2E2181D2A4FF045
:108020000005D8BF082705DD284609B0F0BD044685
:1080300001250927F218601CF05469465770901CFE
:10804000224616F0D7FBF27F023214442846F4771A
:1080500009B0F0BDB4640020C27F1C2A01DD0020FD
:10806000704710B403469C18022098540120A17058
:108070006070DA7F0332DA775DF8044B704700BF37
:1080800010B4084A084C094902620022C0E90A41BA
:10809000C0E90C225DF8044B0270C2774262826331
:1080A000704700BFFF0101002000F40020001E0007
:1080B000C18570470185818542857047F0B51546B9
:1080C00005EB8503274A89B0044603EB83030020B0
:1080D0000E469B0011680290CDE90460ADF81430A3
:1080E00094F821308DF80830CB07CDE906000390D5
:1080F00009D41D491D4BC87FE77F988101201C6072
:1081000099609F801060194902AA04F12000FFF7CE
:108110001DFF10B1002009B0F0BD94F820101448E4
:10812000019102F079FD019902460120FFF712FF4B
:108130000028EFD194F820000121FFF709FF002863
:10814000E8D10B4802F0C6FD628EA68595424FF03D
:10815000010094BF521B921A628684F8230009B072
:10816000F0BD00BF9C640020306B0020A0640020A4
:10817000B4640020F0B5002361F30F032D4D0446D5
:1081800061F31F4389B00363FA21284602F04CFDD6
:10819000E68D2949278D0868049706EB860303EBD3
:1081A000830300229B000592ADF8143094F821302F
:1081B00002928DF80830C307CDE9062203920BD452
:1081C0001E4BE27F95F89B069A8005F27C650122A2
:1081D0001C609D6098810A60184902AA04F1200081
:1081E000FFF7B4FE10B1002009B0F0BD94F82010E4
:1081F0001048019102F010FD019902460120FFF79D
:10820000A9FE0028EFD194F820000121FFF7A0FE7D
:108210000028E8D1074802F05DFD638EA7859E42E5
:108220004FF0010094BF9B1BDB1A638684F8230088
:1082300009B0F0BDB46400209C640020A06400205C
:1082400030B50B888D88112B85B0044605D0262BC0
:1082500033D0102B25D005B030BD436AEB40DB078F
:10826000F9D52E4801F0AEF80028F4D1636A94F8ED
:108270002310012202FA05F523EA050363620029AF
:10828000E9D194F82230002BE5D0238E2348638671
:10829000FA2102F0C9FCE28D218D2046FFF70EFF86
:1082A000D9E7CB7B012BD6D1426A03FA05F51543FA
:1082B0000023456280F82330CDE70B7A012BCAD129
:1082C000002380F823304FF4FA71144802F0ACFC1C
:1082D000238E5BB1658E95B1A36B0BB19847658E0C
:1082E000618D2A462046FFF7E9FEB4E7A36B03B190
:1082F0009847618D00222046FFF7E0FEABE7074874
:1083000002F0FCFC626B002AA5D0009503AB294665
:108310002846039510F0EEFE9DE700BFB4640020F0
:1083200075DF704710B44FF010144FF4480100226D
:10833000C0E90041C0E902225DF8044B704700BF6C
:10834000014800F045BE00BFA46B0020F8B5002531
:108350000D4F2E4601E0142D14D0A9B2384602F07C
:10836000A1FC013504460028F5D000F0DFFC002810
:10837000F1D0204600F0E4FC022804BF0136F6B23A
:10838000142DEAD13046F8BDB464002070B58E8853
:108390001B480C4694B0314602F084FC23881A2B0B
:1083A00005D01F2B1CD0102B0FD014B070BD05466C
:1083B00000F0BEFC0028F8D0284600F0BBFC0028E6
:1083C000F3D1284600F01CFDEFE7694600F000FD00
:1083D0000028EAD06A4631460A4801F08BFBE4E700
:1083E00054F8080F61686B4603C33046BDF800308F
:1083F000ADF802306946FFF793FF14B070BD00BFBF
:10840000B4640020D4640020AADF7047ABDF70475B
:10841000ACDF7047ADDF7047AEDF7047B0DF70474D
:1084200010B5044B044640F8043B01F003FF20461E
:1084300010BD00BF581E040010B5054B044640F89F
:10844000043B01F0F7FE204610F0B6FB204610BDBD
:10845000581E040070B57B4B04461B68836196B0C0
:10846000043001F02DFF94F82E30A06913F0320291
:1084700008BF84F82F2013F00C0308BF84F83030B5
:108480000DF10102694601F0CBFE94F82F209DF812
:10849000010015070DD09DF8001002F00F0301F048
:1084A0000F059D424FEA12126DD243EA021284F880
:1084B0002F2094F8303019070BD003F00F0100F093
:1084C0000F058D424FEA131369D241EA031384F872
:1084D000303094F82E1011F0300340F096800FAD3C
:1084E0000F93C5E90133C5E903338DF83C10AB6147
:1084F0000021ADF809109DF80A10206A1493012399
:1085000063F342018DF808208DF80A1008B1037852
:1085100073BB94F8263013B104F12603129394F838
:1085200031200023D2070893079358BFE38AADF8A0
:108530001C3004F1080004F12F01CDE9050154BFFE
:108540001846E08AADF82000294604F13203E569B7
:10855000099505AA0020FFF757FF054628B994F8AA
:10856000253043BB237D002B64D0284616B070BD58
:10857000109017F042F802AB80B2ADF84400ADF8AD
:1085800046001393C5E74FEA111101D191428CD3F4
:108590000A462B4643EA021284F82F2089E74FEA65
:1085A000101001D1984290D30346294641EA0313A3
:1085B00084F830308DE7ADF80D009DF80E2094F86A
:1085C0002F600C90012363F3420242F608118DF8EC
:1085D0000E208DF8123004AA0223ADF8101003A962
:1085E0000D90ADF83030ADF834300A9204F1240328
:1085F0000B910DF102020AA98DF80C600E93FFF7A2
:1086000005FF0028AED00546AFE70F4B8DF80520DB
:108610000FAD1B788DF80430022000230F938DF8E6
:108620000600C5E90133C5E90333AB618DF83C10A1
:1086300001AB5DE72146054800F086FE284616B0EE
:1086400070BD00BFB06400204C1E0400F468002020
:108650002DE9F0410B888E88502B8AB00C460546D8
:1086600009D0512B04D18B79012B19D0022B26D0A4
:108670000AB0BDE8F081CB88428E9A4235D0EA8EAE
:108680009A42F5D16B6D002BF2D095F84420648AA4
:10869000920700F18A802246294630469847E7E74C
:1086A000836C002BE4D090F84420520701F10807B6
:1086B0006CD43A46294630469847A379D6E7A27B40
:1086C000042A46D0062A20D0012AD1D1EB6C002BF7
:1086D000CED095F84420170704F1080400F1A580D6
:1086E0002246294630469847C2E7076D002FC6D07C
:1086F00090F84430D90768D404F11208238A42461E
:1087000029463046B847E388B9E7EA6B002AAFD07C
:10871000002202A93046CDE90222CDE90422ADF8BB
:108720000C208DF80830FFF779FE2C6D54B195F8C8
:108730004430D80700F19280B5F84230EA6B3046F9
:108740002946A047E86B0DF01DFF0023C5E90F3354
:108750008EE7E86B002878D0B5F84010278A628A47
:1087600007EB020C00234FF0020E8C45CDE90633D7
:10877000CDE908338DF818E039DD40F20913ADF882
:108780001C3006A93046FFF749FE71E703211A465F
:10879000009106AB08213846CDE90665089710F030
:1087A000A9FC002889D1AB6C83E7032000211A467D
:1087B000009006AB0846CDE90665089410F09AFCD7
:1087C00000287FF455AF6B6D65E7218A069604F1AA
:1087D0001208042300933A46404606ABCDE90881CF
:1087E000079510F087FC00288DD12F6D86E79DF846
:1087F0001EC0ADF81C3004F114014CF001033844E4
:10880000ADF822208DF81E300991ADF8207015F0DA
:10881000F1FF238A618AB5F842200B449BB2934250
:1088200038BF1346A5F84230ABE703211A46009142
:1088300006AB0E212046CDE90665089410F05AFCDF
:1088400000287FF415AFEB6C4AE74FF480600DF021
:108850007FFE4FF48061C5E90F017FE7E86BB5F853
:108860004210069604230093224606ABCDE907503A
:10887000099110F03FFC00287FF464AF2C6D5BE79A
:108880002DE9F04F0F464FF6FF718F4289B0064633
:1088900015461C4626D0F18A96F82E308C4228BF09
:1088A0000C46DB0615D40DF1100B8C4228BF0C468C
:1088B0004FF00008718EADF810405A464FF6FF7029
:1088C0000595ADF81280FFF7A3FD404609B0BDE85D
:1088D000F08F3948394602F0CDF908B1F18E31B93F
:1088E000F18AE0E7344802F0D1F90746D3E70020E7
:1088F00002230DF1100BADF81200ADF810305A46FE
:108900000DF10E0338460593FFF784FD43F2014352
:1089100098424FD000284AD19DF80E8008F00108F7
:10892000B8F1000F46D02448394602F0BBF9824620
:10893000A0B300F007FA033883B2002CC5D0CDF8FD
:1089400004804FF00009984605E0BDF80E30E41AA7
:10895000A4B21D4444B3504600F008FAA0450346B3
:108960004246594628BF22463846BBB1ADF80E20D4
:108970004FF00102738E8DF812200DF10E02CDE939
:108980000625CDF813908DF81790ADF81030FFF74D
:1089900043FD0028D9D0504600F0F2F94FF000080E
:1089A000404609B0BDE8F08FDDF804808DE700F0A7
:1089B0000108B5E7F18A78E7B464002070B480F864
:1089C0002E201C4A02601C4A42604A688260D1E93B
:1089D00002621A4C9DF80C50247802611421002286
:1089E000C1820321C0E90F22C0E91222C0E914228A
:1089F000C66080F844200275826102628284C0F8F9
:108A00002620C0F82A20C26142864263028780F88D
:108A10002F4080F8304080F8311045B19BB223B12F
:108A200062F3000180F83110C38270BC704770BCE3
:108A3000C3827047581E0400A01E04004C1E040090
:108A400090F84430016562F3000380F844307047C9
:108A500051F8322F026049684160704710B490F8B5
:108A60002E4014F0100407D013465DF8044B0A465C
:108A70004FF6FF71FFF704BF20465DF8044B7047C7
:108A8000A1DF7047A3DF7047A4DF70470023838313
:108A9000704700BF006A00F0E3B800BF808B7047EA
:108AA0002DE9F0410B88CE88382B86B00C46054660
:108AB00006D0392B66D0362B43D006B0BDE8F08106
:108AC00000F12407002E36D10A8A3846314602F0DA
:108AD000A9F994F80C80B8F1010F2CD0B8F1040F6B
:108AE000EBD1286A00F0BCF801465C4802F0DAF8E5
:108AF00000F028F92A8E053883B2934228BF134626
:108B0000002B00F09A80218AE289286AAC8B8DF8CC
:108B10000D600A44E96A05918DF80C80ADF81230B9
:108B2000ADF81020ADF80E4000F09AF803A9FFF759
:108B3000A9FF0028C1D0384602F08CF906B0BDE884
:108B4000F081006A00F08CF80146444802F0AAF86F
:108B500000F0F8F807466EBB05F12406E2893046BE
:108B600004F1100102F05EF92B8E2BB1F81EE3899F
:108B700080B20138834255DA304602F06BF906B014
:108B8000BDE8F0810B7B012B1AD0022B95D1836BB2
:108B9000002B92D090F83C208F8892071FD401F1CF
:108BA0001006E28931462846984761893846FFF722
:108BB0006BFF82E705F12407384602F04BF9BDE769
:108BC000436B002B3FF479AF90F83C20D10717D4CA
:108BD00004F11006E2893146284698476DE7C989B5
:108BE000039004F1100603201A46009003AB3046B0
:108BF000CDE9046110F07EFA0028D6D1AB6BD0E746
:108C0000E189039004F1100603201A46009003AB9B
:108C10003046CDE9046110F06DFA00287FF44DAFC5
:108C20006B6BD7E7286A00F01BF86A8EA98B92B2AB
:108C3000FFF726FF00289FD13FE7AA8B286AADF8EF
:108C40000E2040F20511ADF80C10CDE9043300F010
:108C500007F803A9FFF716FF6DE700BFB464002013
:108C6000808870478FDF704790DF7047B1DF7047B3
:108C7000B5DF704710B5074B03600446806A0EF0FD
:108C8000C9FAE06A0EF0C6FA206B08B10EF0C2FA1B
:108C9000204610BD701E040010B5094B0360044649
:108CA000806A0EF0B7FAE06A0EF0B4FA206B08B1F1
:108CB0000EF0B0FA20460FF07FFF204610BD00BF37
:108CC000701E040070B504460D4692E80300A580AE
:108CD0000E0CA061A183144DA67717201B21568985
:108CE0002560E0809589D089E181D1796581012273
:108CF00022752274A08161741846194626819DF858
:108D000010500DF0E9FC2946A06228460DF0E4FC65
:108D10004FF4885100234FF6FF72E182E0626282D5
:108D200023636375204670BD701E0400007D70478C
:108D3000407D7047C07D113818BF0120704700BFCB
:108D4000407C7047C0887047008970474B7D10B4E5
:108D50004BB11F310C688A888B79046082805DF882
:108D6000044B837170471831F4E700BF08B56621E2
:108D7000806A0EF0D3F8003818BF012008BD00BF8C
:108D800008B500231A461946806A0DF0D7FC003852
:108D900018BF012008BD00BF818800F11F02407C80
:108DA00002F09EB838B50A4605460C468188407CDC
:108DB00002F082F82146012051F8483FC5F81F30E3
:108DC0008B888A7985F82520A5F82330687538BD09
:108DD00038B50A4604460D4600F11801407C02F001
:108DE000B5F8607550B1294651F8483FC4F81F30B6
:108DF0008B888A7984F82520A4F8233038BD00BFF9
:108E000010B5447D24B100F11F01407C02F07CF8D4
:108E1000204610BD70B50B88113B82B00C4605464C
:108E2000462B2BD8DFE803F0383B2A2A2A2A2A2AA5
:108E30002A422A2A2A2A2A2A50585E642A2A2A2AB8
:108E40002A2A2A2A2A2A2A2A2A2A2A2A2A2A2A2A82
:108E50002A672A942A2A2A2A2A2A2A2A2A2A2A2ACB
:108E60002A2A2A2A2A2A2A2A2A246A2A752C8400AB
:108E70000023A8881A461946FFF7F8FE02B070BD15
:108E80008B79002BFAD1006BAB750028F6D01A460F
:108E900019460DF053FCF1E700230375EEE74B890B
:108EA00003818B894381CB898381E7E70B7AC37583
:108EB000112BE3D0818800F11F02407C02F0FEF804
:108EC00003460028DAD1D4E7002301A98088ADF851
:108ED0000430FFF7C7FED1E70B7A002BCED14B7AD7
:108EE0000374CBE7002211468088FFF7BDFEC5E77B
:108EF0000B89C381C2E74B89C380BFE7006B0123A5
:108F0000AB750028BAD000231A4619460DF016FC9E
:108F1000B4E7417C164801F0BDFEE3880146994262
:108F200028BF194689B2A888E980FFF7A1FEA5E706
:108F30008B79002BA2D0002600231A461946A86A76
:108F40000DF0FCFB0136A279F3B29A42F4D895E712
:108F50008B7A002B92D0002600231A461946E86A25
:108F60000DF0ECFB0136A27AF3B29A42F4D885E711
:108F7000B464002070B58AB086880B4606A84FF40A
:108F80002851144605934FF6FF7501F05BF9012057
:108F9000CDE90105059B0094314606AA044800F07E
:108FA0006FF8044606A801F045F920460AB070BDE6
:108FB000F468002010B50446043001F0CFFE034BE6
:108FC000236000232375204610BD00BF0100FFFF72
:108FD000017D01B1704710B50446043001F0C8FEB0
:108FE0000123237510BD00BF007D70470B88322B15
:108FF00010B504D0332B17D0302B08D010BDCB8840
:10900000DBB1041D2046BDE8104001F023BFCB8832
:10901000041D002BF6D14B89002BF3D00A312046DA
:109020000A2201F0FFFEEDE7CB88002BE9D14A8947
:10903000002AE6D002EB420204E04A89002AE0D08E
:1090400002EB82025200041D023292B20A31204623
:1090500001F0E8FED6E700BFA0DF704710B5044678
:1090600000F5F87001F07AFE2046F822002115F094
:10907000E9FBF822A018002115F0E4FB204610BD02
:109080002DE9F04782B00546BDF82C60BDF83040B0
:109090002048ADF80460BDF828A0ADF80640904621
:1090A00099460F4601F0FEFD05F5F875064603E00A
:1090B000FFF74AFE0DF030FA284601F0B1FE0446F3
:1090C0003046002CF4D10121284601F051FE5246D1
:1090D0004946284601F068FE08F10401384601AA15
:1090E000FFF7BAFF30B1284601F04CFE204602B02F
:1090F000BDE8F0874FF4FA71284601F05BFE20EAE4
:10910000E074284601F03EFEA4B2204602B0BDE85D
:10911000F08700BFB46400202DE9F04F8F880D88E0
:1091200085B0884604463946864801F0BBFDA5F166
:109130001003012B814640F2908094F854203AB3FA
:10914000002633461633502D54F823A069D0512DF4
:109150001AD198F80630B8F808B0022B53D0BBF1FA
:10916000000F11D051466846FFF772FCBDF8003081
:109170005B4559D0514602A8FFF76AFCBDF80C3098
:109180005B4551D094F854200136F3B29342D9D3C1
:1091900094F84C31002B00F0D18004F5A67900261C
:1091A00004E094F84C310136B34220DD59F8040F45
:1091B000FFF770FCB842F4D1382D03D0392D01D01F
:1091C000362DEED1B8F80AA0BAF1000FE9D0D9F8DF
:1091D00000B05846FFF762FC5045E2D15846414680
:1091E000FFF75EFC94F84C310136B342DEDC112D02
:1091F00055D0352D04D1B8F80A30002B40F08F80BF
:1092000005B0BDE8F08F98F80E30062BA7D1DAF83C
:1092100000305046DB68414698474846FFF78AFDD4
:10922000B0E7B8F806B09AE7DAF800305046DB68E5
:10923000414698474846FFF77DFD0028A2D0502DB3
:10924000A0D1514602A8FFF703FCBDF80C305B45E6
:1092500098D14846FFF7A0FD94E72378002B3FF410
:109260006CAF0026112D33460CD004EB8303394636
:10927000586803685B68984701362278F3B29A42CF
:10928000F3D85AE704EB83033946586803681B6830
:10929000984701362278F3B29A42F3D84DE7D3B11A
:1092A0000026334605E094F84C210136F3B29A4289
:1092B00011D904EB8305D5F85001FFF7EBFBB84259
:1092C000F1D1D5F85001FFF7E1FB013694F84C21BC
:1092D000F3B29A42EDD894F8F820002A90D00025F5
:1092E0002B4604EB8303D3F8FC008388BB420AD0EF
:1092F0000135EBB2934283D204EB8303D3F8FC0035
:109300008388BB42F4D103681B689847013594F801
:10931000F820EBB29342E4D305B0BDE8F08F04F53A
:10932000F874B8F80C20204608F1100101F07AFD1D
:10933000204605B0BDE8F04F01F08CBD112D7FF443
:1093400058AFC8E7B464002090F85420272A0CD8FE
:1093500010B4034602F11604013280F8542043F899
:10936000241001205DF8044B70470020704700BFB7
:109370000378132B06D800EB83020133037001201E
:10938000516070470020704778DF70477ADF704780
:10939000054A034692E80300002283E80300C3E97C
:1093A00002221846704700BF781E040008B5FFF778
:1093B000EDFF08B1002008BDFFF7E6FFB0FA80F02E
:1093C000400908BDF8B500250D4F2E4601E0142DCB
:1093D00014D0A9B2384601F065FC013504460028D6
:1093E000F5D0FFF7A3FC0028F1D02046FFF7A8FC3A
:1093F000012804BF0136F6B2142DEAD13046F8BD7B
:10940000B464002081607047C1607047704700BF3E
:109410008ADF704730B40D4CC4621F2500225024EF
:109420008584A025C0E91122C0E90F22A0F846508A
:10943000A0F84840006230BC8262028680F8382082
:109440004263C264A0F85020704700BF0001800052
:109450002DE9F04F10468DB016460C4600F020FF67
:10946000C5B2102D4FD0B66807220623A16994F823
:109470001C9001918DF80D208DF80C30ED080DF148
:109480000C080DF10E0A0027B9F1010F0A97CDE97A
:109490000477CDE90677CDE90877CDF82B700ED9A2
:1094A00098F8000001994B464A7882420FD00A781A
:1094B000D4432344013213F0FF031144F4D108F1E3
:1094C0000108C245E0D100200DB0BDE8F08F11F8D1
:1094D000024B013CE4B2224604A815F08BF90DF1D1
:1094E000100B1CB9EBE714F0FF04E8D058462A46ED
:1094F000314615F071F9641BAB440028F3D101200B
:109500000DB0BDE8F08F043603220223AEE700BFA2
:109510002DE9F0430B888E88103B87B00D4604463A
:109520000D2B2CD8DFE803F077072B2B2B2B2B2BC5
:109530002B2B2B842B2E836AF340DB071FD5564839
:10954000FEF704FFD8B9A36A94F82C20012505FA88
:1095500006F623EA0606A6628AB994F82D3073B19E
:109560001F232462A38404F1200104F14400FFF7C7
:109570004FFF20B9494801F0ADFB84F82C5007B0EB
:10958000BDE8F08390F92E2091F91B309A423ADC25
:1095900090F8383001F108080BB3DFF80491002689
:1095A00002E0D6B2B34218D9636BCDF8089003EB52
:1095B000061302AA59680391D3E902734146204673
:1095C00005930497FFF744FF074602A800F032FE18
:1095D00094F83830721C002FE3D09E4213D094F8D8
:1095E0002F30002B49D095F82430012B0BD9296A54
:1095F0004A78FF2A30D00A78D0430344013213F06E
:10960000FF031144F4D104F120010020FFF700FF13
:1096100007B0BDE8F083CB7B022BB0D1836A012277
:1096200002FA06F633430022836280F82C20A6E774
:109630000B7A012BA3D1002580F82C50174801F09C
:109640005DFB226C002A9AD0009502AB2946284681
:1096500002950FF04FFD92E711F8025B6A1ED2B23D
:10966000022A28BF022202A815F0C4F8012DCAD090
:10967000228EBDF808309A42C5D1E26B002A3FF431
:109680007EAF01230093404602AB2421CDF8088031
:109690000FF030FD73E700BFC4640020B464002005
:1096A000A01E040046DF70477FDF704780DF7047F1
:1096B00081DF704785DF704786DF704738B51C460D
:1096C0000D460346114628462246984734B10146C6
:1096D00000222846BDE83840FFF7E8BF38BD00BF8C
:1096E00010B50C4682B003466946204698476A4644
:1096F00020460121FFF7DAFF02B010BD10B5044685
:10970000083001F005FF074B23600322002322717C
:10971000C4F81034C4F81434C4F81834C4F81C3431
:10972000204610BD3507100330B50446ADF55F7D0A
:1097300000F108058F4801F07FFE0821284601F05E
:10974000EBFE684601F0F2FE6846082101F0F2FEE9
:109750006946284601F090FE04F54F7141226846A3
:1097600001F0F6FE684601F0EFFE94F85C0394F811
:109770005B2394F83D1394F83E3384F83D0384F85A
:109780003E2394F85A0394F8592394F83F5384F8ED
:109790005C1384F85B3394F8401394F8413384F8F5
:1097A0003F0384F8402394F8580394F8572384F82F
:1097B0005A5384F8591394F8425394F8431384F895
:1097C000410384F8583394F8560394F8443384F8EA
:1097D000422394F8552384F8575384F8430384F8BC
:1097E000442384F8553384F8561394F8451394F8B9
:1097F000540394F8532394F8463384F8450384F8CB
:10980000462394F8520394F8512394F8475384F86C
:10981000541384F8533394F8481394F8493384F874
:10982000470384F8482394F8500394F84F2384F8AE
:10983000525384F8511394F84A5394F84B1384F814
:10984000490384F8503394F84E0394F84C3384F869
:109850004A2394F84D2384F84F5384F84B0384F83B
:109860004C2384F84D3384F84E1394F85D1394F828
:109870007C0394F87B2394F85E3384F85D0384F8CA
:109880005E2394F87A0394F8792394F85F5384F86C
:109890007C1384F87B3394F8601394F8613384F874
:1098A0005F0384F8602394F8780394F8772384F8AE
:1098B0007A5384F8791394F8625394F8631384F814
:1098C000610384F8783394F8760394F8643384F869
:1098D000622394F8752384F8775384F8630384F83B
:1098E000642384F8753384F8761394F8651394F838
:1098F000740394F8732394F8663384F8650384F84A
:10990000662394F8720394F8712394F8675384F8EB
:10991000741384F8733394F8681394F8693384F8F3
:10992000670384F8682394F8700394F86F2384F82D
:10993000725384F8711394F86A5394F86B1384F893
:10994000690384F8703394F86E0394F86C3384F8E8
:109950006A2394F86D2384F86B03012084F86F5315
:1099600084F86E1384F86C2384F86D330DF55F7DF5
:1099700030BD00BF406C00200B7803F0FE03042BC9
:1099800001D00020704770B515468CB00C462022DF
:10999000002104A814F056FF28686968AA68EB68DB
:1099A0006D460FC59DF800109DF80F209DF80160D1
:1099B0009DF80E509DF802008DF80F1023469DF87B
:1099C0000D108DF800209DF803208DF80E608DF8A5
:1099D00001509DF80C609DF804508DF80D008DF835
:1099E00002109DF80B009DF805108DF80C209DF8D5
:1099F0000A208DF803608DF80B508DF804008DF867
:109A000005208DF80A109DF8061033F8042FADF8E4
:109A100010209B789DF809209DF81D009DF810608E
:109A20009DF81F508DF809108DF806209DF8111033
:109A30009DF81E208DF81D309DF807308DF812001E
:109A40008DF81F609DF808009DF813608DF8105088
:109A50008DF81E109DF81C509DF814108DF81120E3
:109A60008DF808309DF81B209DF81A308DF80700FE
:109A70008DF81C608DF813509DF815608DF81B1043
:109A80008DF8142068468DF815309DF819109DF852
:109A900017209DF818309DF816508DF818208DF875
:109AA00016108DF817308DF81A608DF81950FFF7E1
:109AB000F9FD62789DF82F309DF82E009DF82D104D
:109AC0008DF821009A428DF8221004F1010404D08F
:109AD000012080F001000CB070BD6278C3B29A42E0
:109AE00004F10104F4D16278CBB29A42F0D10020A3
:109AF000EFE700BF08B5137CDB0758BF1C320846F0
:109B000002F11201FFF7D6FDB0FA80F0400908BD5E
:109B1000F0B58F880E46ADF56B7D04463946464854
:109B200001F0C0F83388133B0546072B2FD8DFE838
:109B300013F03E005F006D002E0028038700080030
:109B40003100337AB3B9737B9B070ED4294602A840
:109B5000FFF7FCF80299BDF80C209DF80E3084F850
:109B60000C34C4F80614A4F80A24284604F2BE31C2
:109B7000FFF718F9D4F818244AB1307A0D9002236F
:109B80000021009308460CAB0C970FF0B3FA0DF5CB
:109B90006B7DF0BDD4F81C24002AF8D001230021ED
:109BA000009308460CAB0C970FF0A4FAEFE704F211
:109BB000BE3304F2DA320C9304F2F633002510922D
:109BC000119304F23D3204F27E330F921393CDE9E8
:109BD0000D551295FFF7B4F801280CBF22462A460E
:109BE0000CAB29463846FFF75FFD0DF56B7DF0BDE8
:109BF0000CA9FFF7EDF80346002800F0D2820CA96B
:109C0000384600231AAAFFF757FDC0E7D4F810140E
:109C10000029BCD0B37B094A03F001030F9304234E
:109C2000CDE90C1706F10800009306210CAB0E904D
:109C30000FF060FAABE700BFB4640020BD960200ED
:109C400094F87E3394F89D2394F87FC394F89C6332
:109C500094F8805394F89B0384F89D33042194F87E
:109C60009A3384F87D1384F87E2394F8811394F852
:109C7000822384F89CC384F87F6394F899C394F892
:109C8000836384F89B5384F8800394F8985394F882
:109C9000840384F89A1384F8813394F8971394F822
:109CA000853384F8992394F8962384F882C384F842
:109CB000986384F8835384F8970384F8841384F8B2
:109CC000852384F8963394F8862394F8953394F892
:109CD00087C394F8946394F8885394F8930394F8A2
:109CE000891384F8952384F8863394F8922394F8A2
:109CF0008A3384F894C384F8876394F891C394F802
:109D00008B6384F8935384F8880394F8905394F801
:109D10008C0384F8921384F8892394F88F1394F8B1
:109D20008D2384F8913394F88E3384F88AC384F8B1
:109D3000906384F88B5384F88F0384F88C1384F831
:109D40008D3384F88E2394F89E2394F8BD3394F8D1
:109D50009FC394F8BC6394F8A05394F8BB0394F8A1
:109D6000A11384F8BD2384F89E3394F8BA2394F8A1
:109D7000A23384F8BCC384F89F6394F8B9C394F801
:109D8000A36384F8BB5384F8A00394F8B85394F801
:109D9000A40384F8BA1384F8A12394F8B71394F8B1
:109DA000A52384F8B93394F8B63384F8A2C384F8B1
:109DB000B86384F8A35384F8A41384F8B62384F812
:109DC000A53384F8B70394F8A60394F8B51394F870
:109DD000A72394F8B43394F8A86394F8B35384F8A1
:109DE000B50384F8A61394F8A90394F8B21384F881
:109DF000B42384F8A73394F8AA2394F8B13384F8F1
:109E0000B36384F8A85394F8AB6394F8B05384F820
:109E1000B20384F8A91394F8AC0394F8AF1384F850
:109E2000B12384F8AA3394F8AD2394F8AE3384F8C0
:109E3000AD3384F8AE2384F8B06384F8AB5384F870
:109E4000AF0384F8AC130CA801F070FB0CA8082138
:109E500001F070FB04F27D310CA8412201F08AFB75
:109E60000CA904AA202304F1080001F033FB0CA87C
:109E700001F06AFB9DF810109DF82F009DF811303D
:109E80009DF82E209DF812609DF82D508DF8100041
:109E90008DF82F109DF813009DF82C108DF81120CF
:109EA0008DF82E309DF814209DF82B308DF812502F
:109EB0008DF82D609DF815509DF82A608DF81310CF
:109EC0008DF82C009DF816109DF829008DF814309F
:109ED0008DF82B209DF817309DF828208DF81560FF
:109EE0008DF82A508DF816008DF817208DF828303F
:109EF0008DF829109DF818109DF827009DF819304D
:109F00009DF826209DF81A609DF825508DF81800C0
:109F10008DF827109DF81B009DF824108DF819204E
:109F20008DF826309DF81C209DF823308DF81A50AE
:109F30008DF825609DF81D509DF822608DF81B104E
:109F40008DF824009DF81E109DF821008DF81C301E
:109F50008DF823209DF81F309DF820208DF81D607E
:109F60008DF822508DF821108DF81F208DF82030AB
:109F70008DF81E0094F87E0394F89D1394F87F23C7
:109F800094F89C3394F8806394F89B5384F89D0371
:109F900084F87E1394F8810394F89A1384F89C2330
:109FA00084F87F3394F8822394F8993384F89B6380
:109FB00084F8805394F8836394F8985384F89A0350
:109FC00084F8811394F8840394F8971384F8992300
:109FD00084F8823394F8852394F8963384F8986350
:109FE00084F8835384F8841384F8962384F88533A3
:109FF00084F8970394F8860394F8951394F88723CC
:10A0000094F8943394F8886394F8935384F8950300
:10A0100084F8861394F8890394F8921384F89423AF
:10A0200084F8873394F88A2394F8913384F89363FF
:10A0300084F8885394F88B6394F8905384F89203CF
:10A0400084F8891394F88C0394F88F1384F891237F
:10A0500084F88A3394F88D2394F88E3384F89063CF
:10A0600084F88B5384F88C1384F88E2384F88D3312
:10A0700084F88F0394F89E0394F8BD1394F89F23FB
:10A0800094F8BC3394F8A06394F8BB5384F8BD03F0
:10A0900084F89E1394F8A10394F8BA1384F8BC23AF
:10A0A00084F89F3394F8A22394F8B93384F8BB63FF
:10A0B00084F8A05394F8A36394F8B85384F8BA03CF
:10A0C00084F8A11394F8A40394F8B71384F8B9237F
:10A0D00084F8A23394F8A52394F8B63384F8B863CF
:10A0E00084F8B70384F8A41384F8B62384F8A5335E
:10A0F00084F8A35394F8A65394F8A72394F8B433A0
:10A1000094F8B50394F8A81394F8B36384F8B5539E
:10A1100084F8B42394F8A95394F8AA2384F8A733B5
:10A1200094F8B13394F8B0C384F8A60384F8B31359
:10A1300094F8B20394F8AB1384F8A86384F8B2538C
:10A1400094F8AC6394F8AF5384F8B12384F8AA333D
:10A1500094F8AD2394F8AE3384F8A90384F8B013CF
:10A16000384604A984F8ABC384F8AF6384F8AC53D1
:10A1700084F8AE2384F8AD33FFF79AFA0DF56B7DC2
:10A18000F0BDD4F81424002A3FF401AD02230021CD
:10A1900000930C920CAB064A0D9708460EF0AAFFEE
:10A1A000F5E438461A461946FFF786FAEFE400BF91
:10A1B000E1960200A8DF7047704700BF30B5044643
:10A1C00083B0083000F07CF804F10C010DF10602B8
:10A1D0000120FFF7EFFF054628B9044B04481C6037
:10A1E0002146FFF7C5F8284603B030BDB064002013
:10A1F000F468002030B44C68C460D1E90241054ADB
:10A20000054D0260054A8560C0E90441426030BCEA
:10A21000704700BF881E0400A01E0400000011113A
:10A2200083790B70C3791370704700BF62DF70478A
:10A2300063DF7047704700BF10B504460EF0BCFCEA
:10A24000204610BD10B4054C81800022012104601D
:10A25000C0E902225DF8044B81717047A01E040022
:10A2600038B50E4B0360044608460D4615F0C5F997
:10A27000042806D00023A371E560A380A3602046D4
:10A2800038BD28461022002115F072FA0122002361
:10A29000A271A080C4E90233204638BDA01E04008C
:10A2A0008379012B0AD0826832B9C26822B9012BA6
:10A2B0008CBF80200020704780207047102070479E
:10A2C0002DE9F047857982B0002D47D1C768064651
:10A2D000002F47D010200CF03BF98246384615F08D
:10A2E0008CF9441E30B3DFF88490A84604E00134B2
:10A2F000023C1FD4102D1DD017F804C0BCF12D0F47
:10A3000007EB0402F3D099F80030ADF805808DF822
:10A31000043012F8013C8DF804301022002101A80D
:10A320008DF805C015F024FA6B1C023C0AF80500F4
:10A33000DDB2DFD5C6F808A0BAF1000F0ED0B11D0E
:10A340005046FFF773FFB168321D1020FFF770FF12
:10A35000B0FA80F0400902B0BDE8F087012002B0F9
:10A36000BDE8F087D0F808A0E6E700BF941E04001F
:10A370004DDF70474EDF70474FDF704750DF70474B
:10A380004BDF704710DF70477CDF70477DDF704721
:10A3900060DF704769DF704761DF704766DF7047D5
:10A3A00067DF7047704700BF0C200FF033BA00BF63
:10A3B00030B5224C224D83B0D4F828074FF0FF313E
:10A3C0000CF0ACFD0028F7D0C5B101A8FFF7D8FF0D
:10A3D0000528F1D00028F8D1019B032B1BD8012BB5
:10A3E000F3D918460BF072FCEFE70A2B04D0092BC7
:10A3F00021D00B2B02D1012005F040FB01A8FFF773
:10A40000BFFF0528D8D00028F8D1019BA3F109028D
:10A41000022AF3D8E9E7A3F10902022AD5D80A2BC8
:10A4200004D0092B05D00B2BCFD1012005F026FB42
:10A43000CBE70220FAE70220DEE700BFB464002089
:10A44000CD5C03002DE9F04F2DED028B4FF4FA7037
:10A4500089B00CF07DF8B24E00F1080308EE103A16
:10A46000054606F5F06706F5C86AD6F824074FF0EA
:10A47000FF310CF053FD0028F7D04FF4FA730DF1C3
:10A4800016012846ADF81630FFF786FF10B10528F3
:10A49000F3D1EAE7B5F80490B9F1130F00F239816E
:10A4A00006EB8903D3F834473CB129462046FEF732
:10A4B000B1FC9C482946FFF72BFB2B88013B1B2B4B
:10A4C0005AD8DFE813F01601590059005900590015
:10A4D00059005900590059005900590059005900B4
:10A4E00059005900B4001C00590059005900590086
:10A4F000590059005900590059005900A200DFF8CD
:10A5000038824FF0000B58F8040F30B1FEF70EFC04
:10A5100018B10BF1010B5FFA8BFBB845F3D1BBF11E
:10A52000000F06D196F830371BB159460C200FF0BA
:10A5300053F92046FEF704FC012800F0EC80F26994
:10A5400062B10223002195F808C00093084606ABCB
:10A55000CDF81890CDF81CC00EF0CCFD09F5E678CA
:10A5600006EB8803586810B103685B68984706EBF0
:10A5700088080023C8F8043029465046FDF760FEDD
:10A5800069482946FEF7C4FFB6F832374B452B8899
:10A5900000F0B480102B1ED02CB32046FEF7D0FB69
:10A5A000012803D15E482946FEF730FF2046FEF71A
:10A5B000C7FB02281BD05D48FEF716FD00BB5C48B8
:10A5C0002946FEF7A9FDD6F88837002B3FF455AF92
:10A5D0002846984751E7EB7B012BDDD1AB88A6F8E5
:10A5E0003237002CD9D14E482946FEF70FFF51488B
:10A5F0002946FDF7CBFE4D48FEF7F6FC0028DED0DD
:10A600004A482946FEF7F2FCD9E7D6F88427002A03
:10A61000B2D00223002195F908C00093084606AB8A
:10A62000CDF81890CDF81CC00EF064FDA4E74FF0F3
:10A630000008D6F82C07CDF8008043464246032197
:10A640003D4C0DF0EBFF54F8040F30B1FEF76EFBFC
:10A6500018B108F101085FFA88F8BC42F3D196F806
:10A6600030376BB1B8F1000118BF01210C200FF099
:10A67000B3F896F830371BB101210C200FF0ACF87D
:10A6800009F5E67806EB8804606820B103685B682A
:10A69000984700236360EB7B012B0BBF96F81237C2
:10A6A00096F8183796F8134796F81947039334200D
:10A6B0000EF080FA06EB8808039B009418EE102A2F
:10A6C00004464946FEF7FEFA2046C8F80440FEF765
:10A6D00037FB012832D0B269002A3FF44DAF012385
:10A6E00000210093084606ABCDF818900EF002FD4D
:10A6F00042E700214846FFF751FE3DE7102B3FF4AB
:10A700006AAF112B7FF448AF4FF6FF73A6F83237CC
:10A7100042E70446D1E6F268002A7FF412AF1DE753
:10A72000B4640020D4640020506B0020A46B00208F
:10A73000F4680020C4640020E46B0020B268002AA2
:10A740003FF41AAF0021009006AB0846CDF81890F0
:10A750000EF0D0FC10E700BF38B50446FEF718FE37
:10A7600004F11000FDF7DEFD04F12000FEF7C6FF46
:10A7700004F58860FEF772FC04F5C860FDF780FC04
:10A7800004F27C60FDF720FC04F29C60FEF742FEC0
:10A7900004F5DE60FEF70EFC4FF480530025C4F88C
:10A7A000083716481649174AC4F80C0740F2011337
:10A7B000C4F81017C4F81427A4F81837A4F81A57C7
:10A7C00004F234702946502214F03CF801224FF66E
:10A7D000FF73A4F81C5784F81E57C4F82457C4F814
:10A7E0002857C4F82C57C4F88857C4F8845784F8FD
:10A7F0003027A4F83237204638BD00BF010A1700C1
:10A800000300010117000300F0B5BF4E80F81C17CC
:10A810008DB080F81D2704460EF04AFA0EF050FA6B
:10A820000EF00EFA3369B949039303A8FFF7AAFDA6
:10A8300018B1002528460DB0F0BD0120FFF79AFDA4
:10A840000120FFF795FD0120FFF796FD09A8FFF70E
:10A8500095FD099B9B0705D5AD4BD3F80435002B1F
:10A8600000F0FE800023AB4A94F80D57049209A92A
:10A870000120CDE909330B938DF82450FFF78AFDB1
:10A880000028D6D194F81D370B90CDE90900181E89
:10A8900018BF012094F81C578DF82700049A8DF8F2
:10A8A000263009A940208DF82550FFF773FD0028B8
:10A8B000BFD194F80C170990034661F30003CDE96A
:10A8C0000A00049A8DF8243009A9A020FFF762FD40
:10A8D0000028AED1D4F808370A900B90049A099357
:10A8E00009A9A120FFF756FD0028A2D194F81C3732
:10A8F000002B40F0B98094F81D37002B48D000237E
:10A90000B4F81477049A0993022509A92320CDE904
:10A910000A338DF82450ADF82670FFF73BFD002870
:10A9200087D1CDE9090094F81D77B4F816370B905C
:10A93000049A8DF8245009A920208DF82670ADF8CE
:10A940002830FFF727FD00287FF473AF0990CDE989
:10A950000A0094F81837049A8DF8245009A9222087
:10A960008DF82630FFF716FD00287FF462AFCDE9A1
:10A97000090094F819370B90049A8DF8245009A90E
:10A9800021208DF82630FFF705FD00287FF451AF18
:10A9900004A8FFF7FDFC00287FF44BAFCDE90700CA
:10A9A00040F0010307A902208DF81C30FFF7F8FCE6
:10A9B00000287FF43EAF2046FEF7F8FC054600284D
:10A9C0003FF437AF04F12000FEF7AEFE337D52496D
:10A9D0008DF80830132202A8FFF7D6FC00287FF478
:10A9E00028AF94F81D37002B40F088800322002107
:10A9F00001200BF02FFEC4F8240700283FF419AF04
:10AA000005AB0326CDE900634449454800234FF4D4
:10AA1000A0620CF09DFD3246002101200BF01AFED1
:10AA2000C4F8280700283FF404AF06ABCDE9006363
:10AA30003C493D480023C8220CF08AFD3B4B4FF4B3
:10AA400080021A603A4B00930023184601224FF40B
:10AA500080710DF08DFDC4F82C0700F007FAE9E6CF
:10AA6000022005F00BF8FDE60990CDE90A00B4F8E4
:10AA70000E37049AADF82630012509A923208DF858
:10AA80002450FFF787FC00287FF4D3AECDE90900FE
:10AA900094F81C77B4F810370B90049A8DF8245072
:10AAA00009A920208DF82670ADF82830FFF772FC38
:10AAB00000287FF4BEAE0990CDE90A0094F8123761
:10AAC000049A8DF8245009A922208DF82630FFF72A
:10AAD00061FC00287FF4ADAECDE9090094F813378E
:10AAE0000B90049A8DF8245009A921208DF8263066
:10AAF000FFF750FC00283FF4FEAE9AE604F1100088
:10AB0000FDF71EFC72E700BF001F0400A5A30200B2
:10AB10000070024000600020E41E0400F81E0400E3
:10AB200045A40200FC1E0400B1A3020000E100E005
:10AB3000A9A3020000B5084B85B01B7D0191084612
:10AB40008DF80C3014F059FD019982B203A8FFF77B
:10AB50001BFC05B05DF804FB001F040000B583B0CA
:10AB600008460DF10601ADF80620FFF70FFC20B9ED
:10AB70009DF8060003B05DF804FB002003B05DF80B
:10AB800004FB00BF70B4234B0E4605460FCB85B0C7
:10AB90006C4607C49DF900202380B24234D09DF951
:10ABA0000130B34230D09DF90230B3422CD09DF930
:10ABB0000330B34228D09DF90430B34224D09DF92C
:10ABC0000530B34220D0FEB19DF90730B3421BD00F
:10ABD0009DF90830B34217D09DF90930B34213D024
:10ABE0009DF90A30B3420FD09DF90B30B3420BD020
:10ABF0009DF90C30B34207D09DF90D30B34203D01C
:10AC0000002005B070BC7047012085F81E6705B0B4
:10AC100070BC7047181F040090F91E07704700BFF2
:10AC200080F83017704700BF70B5044682B0D0F886
:10AC30002C070D460DF01EFD4FF47A7206460023D8
:10AC4000A90DA80213F0ACFB002302460421D4F89E
:10AC50002C0700930DF0E2FC0EB102B070BD00961F
:10AC6000D4F82C073346324603210DF0D7FC02B04E
:10AC700070BD00BF132906D800EB8101D1F834075D
:10AC800008B1FEF753B80020704700BFB0F8320794
:10AC9000704700BF01290CBFB0F80E07B0F81407C9
:10ACA000704700BF13299ABF00EB8101D1F8340728
:10ACB0000020704710B5064C0021D4F828070BF08F
:10ACC000A1FFD4F824070021BDE810400BF09ABF83
:10ACD000B464002090F8303703B9704710B582B0E3
:10ACE000D0F82C470CF024FE0023024600932046A7
:10ACF00001210DF093FC02B010BD00BFF0B583B090
:10AD0000002405462346D0F82C0700942246032150
:10AD10000DF084FC05F5E66605F5F06756F8040FBE
:10AD200020B1FEF703F808B10134E4B2BE42F5D118
:10AD300095F8303743B1211E18BF01210C2003B014
:10AD4000BDE8F0400EF048BD03B0F0BD0148FFF78C
:10AD500003BD00BFB4640020002070470022012121
:10AD60004270C0E901220170C2818281704700BF38
:10AD700010B50446017001B110BD0A200BF0ACFC07
:10AD8000606010BD037810B5044643B10023012272
:10AD90006370C4E90133E381A381227010BD406870
:10ADA0000CF038FAF2E700BF002381608281C38192
:10ADB000704700BF037870B504460D46B3B94668C6
:10ADC000012363704FF47A720023A802A90D13F0D7
:10ADD000E7FA014630460CF0A1F898B9237800262E
:10ADE0004FF0FF356670A3B9284670BD03220021DD
:10ADF00001200BF02FFC064660600028E0D14FF0E8
:10AE0000FF35F1E7E58923780026ADB26670002BA7
:10AE1000EAD060680CF0FEF96660284670BD00BF9D
:10AE20004078704738B504468089824228BF024680
:10AE3000154619B1A06813F0DDFCA089E389A2686A
:10AE400015FA83F3401B9BB22A44A081E381A260E0
:10AE5000284638BD406820B100231A4619460BF039
:10AE60006DBC7047B1DF7047B2DF704708B50F485F
:10AE70000AF0BAFD0E490D4805F09AF828B10D49BF
:10AE80000A4805F095F850B108BD0949074805F092
:10AE9000ABF80849054805F08BF80028F4D1BDE867
:10AEA00008400449014805F09FB800BF74790020AC
:10AEB000281F04003C1F040070B586B00E46032313
:10AEC0000021054614460093044A0496084603AB45
:10AED000039505940EF00EF906B070BDA5B1020001
:10AEE00070B586B00323144606460D4600931046FF
:10AEF00003AB044A05940721CDE903650EF0FAF887
:10AF000006B070BDD5B2020030B50A4691B089795D
:10AF10005379039111790293D378094D094C01912A
:10AF200000939378527801280CBF2946214604A843
:10AF300014F00EFB04A9044805F0AEF811B030BDC2
:10AF4000501F0400801F0400747900202DE9F04395
:10AF5000D1B00B78032B04AF0D460446904668D958
:10AF60005A08022A5ED14F4A4F49504BDFF84891A8
:10AF7000012818BF11460022381D05F065FA4B491B
:10AF800007F1680005F096F907F1CC0611E00246DA
:10AF9000414607F1680005F07FFA08F138022946BA
:10AFA0004846FEF7E9FC044678BB07F1680005F067
:10AFB000E9FA0022391D304605F016FB07F1D000F2
:10AFC0000DC8D7F8DC10D7F8E4407B67D7F8E83035
:10AFD00097F8E0C0F8663A67B967412207F1EC01DB
:10AFE00007F18800C7E9204387F87CC013F002FC12
:10AFF00007F1680005F0F2FA044607F1680044B171
:10B0000005F0F8F85028D0D1C1E707F1680005F045
:10B01000B9FA381D05F0B6FA204607F59A77BD460D
:10B02000BDE8F0830024204607F59A77BD46BDE8C9
:10B03000F083E9468CB08979AB786A7803916979B5
:10B040000291297901911A4E1A49E878009004ADCD
:10B05000012C08BF3146284607F1CC0614F078FAD7
:10B060001249304605F026F929463046002205F0FF
:10B07000CFF9044650B90024304605F083FA204643
:10B08000CD4607F59A77BD46BDE8F083304605F01A
:10B09000B1F8021EEFDD92B24146304605F0FCF9F0
:10B0A000EAE700BF3C1F0400281F04007479002059
:10B0B000501F0400801F0400D4640020F0B5ADB020
:10B0C00095799378344E14465278039565790295B4
:10B0D00094F804C0CDF804C0304DE478009404AF77
:10B0E0000C4601280CBF3146294607F10C0014F02C
:10B0F0002FFA2B4B07F10C0107F13C00002205F061
:10B10000A3F907F13C0005F069FA40B9002407F102
:10B110003C0005F037FA2046A437BD46F0BD07F1E4
:10B120003C0005F067F8051E08DD07F13C0005F05E
:10B13000F1F9291807F13C0005F0CEF907F13C00C0
:10B1400005F058F8051E08DD07F13C0005F0E2F9AE
:10B15000291807F13C0005F0BFF907F13C0005F0A4
:10B1600049F80028D2DDC31D23F007036D46ADEB7F
:10B17000030D82B204A907F13C00C7E9001205F0F3
:10B180008BF92046D7E900120323FFF76BFEB0FAD4
:10B1900080F46409AD46BAE7501F0400801F040024
:10B1A00074790020F0B5B5B092F84E5092F84A305C
:10B1B000434E144692F84920039594F84D50029559
:10B1C00094F84C50019594F84B5000950D463D492C
:10B1D00004AF012818BF314607F12C0014F0B8F96C
:10B1E000394807F12C0104F0E3FE6E4600284AD1ED
:10B1F000354B07F12C0107F15C00012205F024F921
:10B2000007F15C0005F0EAF918B9C437B546BD4648
:10B21000F0BD502107F15C0005F01AF850222146DC
:10B2200007F15C0004F052FF0023294627487B61A8
:10B23000C7E90333C7E90633C7E90833BB62FFF741
:10B2400031FD07F10C012022FDF794FE3B7B03B397
:10B2500007F10C0014F0D1F9013082B2C1B207F14C
:10B260005C007A6004F0F4FF7A6807F10C0107F1E2
:10B270005C0004F02BFF07F15C0005F083F9C43794
:10B28000B546BD46F0BD07F12C010F4804F004FFA0
:10B29000AEE794F8491094F84D3094F84E2003919D
:10B2A00094F84A10029194F84B10019194F84C10C4
:10B2B000009107F10C00064914F04AF9C8E700BFF5
:10B2C000801F0400501F040074790020B464002023
:10B2D000B01F04002DE9F043ADB00C4604AF0021CF
:10B2E000032306461546204607F10A027981FFF737
:10B2F000BBFD7B89E84623B9A437C546BD46BDE8FA
:10B30000F0830733DB08A8EBC3039D460DF110095A
:10B31000204607F10A0249460323FFF7A5FD04462C
:10B320000028E9D1A979AB786A780391697902910B
:10B33000297901913D483E49ED780095012E08BFDD
:10B34000014607F10C0014F003F93A4B07F10C0128
:10B3500007F13C00012205F077F807F13C0005F009
:10B360003DF90028C8D0214607F13C0005F0B4F8AB
:10B3700007F13C0004F03EFF041E08DD07F13C002D
:10B3800005F0C8F8211807F13C0005F0A5F807F111
:10B390003C0004F02FFF041E08DD07F13C0005F01F
:10B3A000B9F8211807F13C0005F096F807F13C00C8
:10B3B00004F020FF7C8980B2A04213D0E1B207F1F3
:10B3C0003C0004F045FF2246494607F13C0004F0EA
:10B3D0007DFE07F13C0005F0D5F8A437C546BD4613
:10B3E000BDE8F083E31D6D46DB08A5EBC3039D4676
:10B3F00004A9224607F13C00796005F04DF8796810
:10B400007A89484613F0E8F908B9AD46E1E707F153
:10B410003C0005F09BF87B89DB43191807F13C00E1
:10B4200005F05AF8AD467C89C8E700BF501F0400FC
:10B43000801F04007479002038B590F8E8500DB1F1
:10B44000284638BD012380F8E83004460FF09EFFFF
:10B450000028F5D12046BDE8384000F0ADB800BF67
:10B4600010B5044C204600F0A3F8002384F8E8301F
:10B4700010BD00BF406C002003680A689A4201D0EA
:10B480000020704770B5044684B04FF453700D46E9
:10B490000BF05EF80646B0B10C4800F0ABF823465E
:10B4A0000435002153F8042B0095CDE901610849CA
:10B4B0000FF006FE044630460BF064F8B4FA84F050
:10B4C000400904B070BD002004B070BD406C002085
:10B4D0009D9E0300F0B585B006464FF453700D46AF
:10B4E000174603930BF034F878B1044600903A46BF
:10B4F000281D311D03AB0FF061FE054620460BF001
:10B5000041F815B9039805B0F0BD002005B0F0BDB5
:10B5100000220260704700BF10B5044608460FF0D5
:10B52000BFFE2060003818BF012010BD002202605D
:10B53000704700BF10B5044608460FF0B1FE20600A
:10B54000003818BF012010BD00230360704700BF02
:10B5500000B583B00430019201AB0A4604210FF01C
:10B5600029FD18B9019803B05DF804FB002003B071
:10B570005DF804FBF0B5044683B04FF463700E46EB
:10B5800017460AF0E5FF054678B1019054F8040B20
:10B5900000943A46314601230FF048FC0446284601
:10B5A0000AF0F0FFB4FA84F0400903B0F0BD00BF28
:10B5B000002280F8E420704770B590F8E4400CB1A8
:10B5C000204670BD012380F8E43005464FF4BF509B
:10B5D0000AF0BEFF06460028F2D0314628460EF09B
:10B5E00049FE0446B4FA84F4304664090AF0CAFFFE
:10B5F000204670BD704700BF0146014800F056BAB2
:10B600004C6D002038B500F097F940B10024054694
:10B610002046013400F0C8FDE0B28542F9D838BDBB
:10B6200070B592B01D460C46164601A84222002174
:10B6300013F008F9412D5CD9631C0222DBB28DF8AE
:10B6400006408DF80E408DF8264040F6083540F251
:10B6500002248DF81E308DF827308DF83130ADF88A
:10B6600004508DF807208DF812208DF833208DF8C6
:10B670003B20ADF80840204A069240F20125052300
:10B680002424ADF810508DF815308DF816400423A1
:10B690001A4C8DF81F30012540F224628DF81C50A1
:10B6A0008DF830300894ADF82420154D0A95082304
:10B6B0004FF411640A228DF82C30ADF82E4040234F
:10B6C0008DF834200F4C8DF83C3001A9304640F203
:10B6D000075540F209464222ADF80C60ADF83850EB
:10B6E0008DF84330CDF83F4013F084F8422012B07B
:10B6F00070BD002012B070BD200105242402020597
:10B700000705800307058002007EFF280AD010B5D8
:10B7100000F0F8FC044608B1204610BD0DF00AFC0C
:10B72000204610BD00207047007EFF280ED000B5D7
:10B7300083B00DF1070100F02DFD20B19DF8070049
:10B7400003B05DF804FB4FF0FF30F9E74FF0FF3036
:10B75000704700BF007EFF280FD000B583B00122E4
:10B760000DF1070100F0DAFC20B19DF8070003B0ED
:10B770005DF804FB4FF0FF30F9E74FF0FF30704702
:10B78000007EFF2801D000F00FBD7047007EFF282B
:10B7900001D000F069BD0020704700BFF8B5064633
:10B7A000007EFF281CD017465AB10D46144600F003
:10B7B00083FC2946224680B1307E00F039FD241AF0
:10B7C00001D13846F8BD05440DF0B4FB307E00F0E1
:10B7D00073FC294622460028EED13F1B3846F1E78C
:10B7E0000020F8BD70B50368184A5B6882B09342C8
:10B7F0008DF8071021D10546007EFF2823D000F0E8
:10B800005BFC0DF1070601243146224688B1287EF3
:10B8100000F00EFD241A02D1012002B070BD0644D2
:10B820000DF088FB287E00F047FC314622460028B8
:10B83000EDD1C4F1010002B070BD01220DF107018C
:10B84000984702B070BD002002B070BD9DB70200E5
:10B8500070B592B01D460C46164601A84222002142
:10B8600012F0F0FF412D5CD9631C0222DBB28DF88F
:10B8700006408DF80E408DF8264040F6083540F21F
:10B8800002248DF81E308DF827308DF83130ADF858
:10B8900004508DF807208DF812208DF833208DF894
:10B8A0003B20ADF80840204A069240F201250523CE
:10B8B0002424ADF810508DF815308DF8164004236F
:10B8C0001A4C8DF81F30012540F224628DF81C506F
:10B8D0008DF830300894ADF82420154D0A950823D2
:10B8E0004FF411640A228DF82C30ADF82E4040231D
:10B8F0008DF834200F4C8DF83C3001A9304640F2D1
:10B90000075540F209464222ADF80C60ADF83850B8
:10B910008DF84330CDF83F4012F06CFF422012B05A
:10B9200070BD002012B070BD200105242402020564
:10B930000705800307058002014B1878704700BF98
:10B94000486D0020037EFF2B02D1074B1A7802B10D
:10B950007047064902764161012200F11001044856
:10B960001A7000F043B800BF486D0020D01F0400DB
:10B970004C6D0020007EFF280ED000B583B000F093
:10B980009BFB10B103B05DF804FB01900DF0D2FAFF
:10B99000019803B05DF804FB0020704701B900B1C5
:10B9A000704700B583B0694600F09CFB009BB3F57F
:10B9B000966F02D003B05DF804FB00F029FBF9E7B5
:10B9C00030B4084B084AFF2002F108054FF47A749E
:10B9D0000021303218761D609C601A6130BC5960BD
:10B9E000596170472C6D0020E01F0400F8B5054632
:10B9F000B0F818016C69B5F81A310A680E460444AB
:10BA00001B1A176895F81C119BB222463046B8479E
:10BA100050B3221894423CD2766806E0052B25D01C
:10BA200023780BB31C44A24233D96378042BF5D19D
:10BA3000E378002BF4D195F81C11013185F81C1125
:10BA4000002EEDD095F840110729E9D801F14807FB
:10BA500045F82760217295F84011013185F84011B1
:10BA60001E462378002BDDD10020F8BD94F902306A
:10BA7000002B08DB95F81E31591C85F81E11A178A2
:10BA80000B43A370CCE795F81D31591C85F81D11A7
:10BA9000F5E7B5F818216B69104480B2A5F81801D4
:10BAA000588095F81C211A710120F8BD2DE9F0434A
:10BAB000284DDFF8B090AC4604468846BCE80F003D
:10BAC00089B003AF0FC703AE0FCE05F1140E2546A4
:10BAD0000FC59EE80700DCF800303B806B463668F7
:10BAE0002E8003C36B4603CB1B4EA06104F11803E9
:10BAF0004FF4807C0125E16184F82020636140F2ED
:10BB0000EF2200231548C4F8189140F20947042198
:10BB1000A4F81CC1C4F8280184F84011A280C4F81C
:10BB20002C31C4F83031C4F83431C4F83831C4F899
:10BB30003C314FF4E131C4E94876094884F81E519C
:10BB4000A571FFF7FFFE404600F050FA284609B005
:10BB5000BDE8F0833020040014200400E41E04003B
:10BB60002C6D0020090000012DE9F04F04468BB038
:10BB7000002900F09180032900F09C8090F840316A
:10BB80008B4240F2CB80483100F5A27550F821601D
:10BB90003278002A00F0E78000231946374603E098
:10BBA0000131725C7718CAB102F14000C0B20128BD
:10BBB000F6D9F42AF4D8100618D40120A2F5584773
:10BBC000B7F5006FECD30144202B00F0C98025F8B5
:10BBD0001320725C01337718002AE5D1DBB2013300
:10BBE0005B0043F4407304F5A17C5DE002F0E000EB
:10BBF000C02800F0A18002F0F000E02800F0918061
:10BC000002F0F800F028CBD102F007024FF0040E4A
:10BC1000787800F0C00CBCF1800FC1D197F802C059
:10BC20000CF0C00800F03F00B8F1800F40EA82122B
:10BC3000B6D10CF03F0CBEF1030F4CEA821275D066
:10BC4000F87800F0C007802FAAD100F03F0040EA4A
:10BC50008212A2F58030B0F5801F38BF4FF0040E7D
:10BC60009ED2A2F55840B0F5006F99D3B2F5803F4F
:10BC70007144A9D31E2BB1DCA2F580325800970A7B
:10BC80002844C2F30902A7F52057A2F5105225F85F
:10BC900013704280023384E7D0F82031A0F8443199
:10BCA00000F5A17C4FF44173A4F8423160460BB01B
:10BCB000BDE8F08F02A800F0ADF904F5A17C019079
:10BCC00020B300F1FF3B5FFA8BF3284F04F1040B24
:10BCD0000DF1080A0BEB830BA64606AE97E80F00A2
:10BCE0001AF8018B86E80F0008F00F090AADA94485
:10BCF00005EB181819F8109C18F8103CAEF846918E
:10BD0000AEF844310EF1040EDE45E7D1019B5B0035
:10BD1000DBB201335B0043F44073C5E74FF0000C26
:10BD2000C4E702F00F024FF0030E71E7A2F50060C6
:10BD3000B0F5784F95D333E7787800F0C007802FBF
:10BD400002F01F027FF42CAF00F03F0040EA8212A5
:10BD5000A2F18000B0F5F06FBFF422AF02202DE712
:10BD600040F242333FE740F202333CE71C2004003C
:10BD7000004870474C6D0020014B5869704700BF68
:10BD80004C6D00200A4601460148FFF7EDBE00BF9A
:10BD90004C6D0020024B186800B10069704700BF6D
:10BDA000D06E002030B40848BDF80850046844B193
:10BDB000646934B10846A44611461A462B4630BC85
:10BDC0006047002030BC7047D06E002030B4084877
:10BDD000BDF80850046844B1A46934B10846A446CB
:10BDE00011461A462B4630BC604730BC704700BF36
:10BDF000D06E0020024B186808B190F850007047D0
:10BE0000D46E00202DE9F047244C2568002D42D047
:10BE10001F4600EBC00305EB83030446D3F818A0CC
:10BE200089469046C600BAF1000F30D0504613F054
:10BE3000E4FB0828024628BF0822344405EB8405A9
:10BE4000D5E90764DFF85CC0154B002E08BF6646D5
:10BE500051464846002C08BF1C4612F0CBFC304629
:10BE600013F0CBFB10280246314628BF1022404673
:10BE700012F0C0FC204613F0C0FB04280246214605
:10BE8000384628BF0422BDE8F04712F0B3BCDFF803
:10BE900018A00822D1E7BDE8F08700BFD46E0020CB
:10BEA0006C2004005C20040050200400F8B50B4F07
:10BEB0003B688BB100EBC00503EB850504466A695E
:10BEC000C6001AB190473B6885F82A00344403EB5A
:10BED000840393F82A00F8BD1846F8BDD46E0020FC
:10BEE000074B1B685BB100EBC00003EB800010B494
:10BEF000038D446A0C605DF8044B138070477047F3
:10BF0000D46E00200A781E2A01D10020704710B597
:10BF100020221C460521002300F078FF204610BD9A
:10BF200030B4094C029A256855B1044604EBC404A8
:10BF300005EB840408461946A3680BB130BC1847CA
:10BF40004FF0FF3030BC7047D46E002030B4094C45
:10BF5000029A256855B1044604EBC40405EB840439
:10BF600008461946E3680BB130BC18474FF0FF3064
:10BF700030BC7047D46E0020054B1B6833B100EB1A
:10BF8000C00003EB8000036903B11847704700BF8E
:10BF9000D46E002000B5104B402283B083F82723D5
:10BFA00003F030FF4FF080430024D3F838548DF86D
:10BFB000004068460CF018FE084B019301A80CF0F5
:10BFC00063FE0CF06DFEEB0702D401F009FFFCE705
:10BFD000204603F053FDF8E700E100E0E1BF020076
:10BFE00003F04CBD002003F029BA00BF00B50023C8
:10BFF00083B00322CDE9002303490448C8220BF093
:10C00000A7FA03B05DF804FB7020040095BF02009E
:10C010000DF0D4B94FF08052536E1BBA0360136E0B
:10C020001BBA43600820704700487047782004001E
:10C0300070B51F4D2B68B3B199B91478C4F341148E
:10C04000012C0BD0022C07D15478012C0DD0022CDE
:10C0500007D19388072B21D0084670BD517822293B
:10C060000CD0012070BD184670BDDC69F4B1237896
:10C0700011462246BDE8704002F070BE518800397A
:10C0800018BF01211976114602F04EFE2A68136A84
:10C09000002BE6D0107E9847204670BD054C114617
:10C0A00023892246BDE8704002F058BE204670BD8C
:10C0B000D86E00200460002010B5044601F0ECFDAD
:10C0C00008B9002010BD01F0EFFD0028F9D10448A7
:10C0D0004FF45A7303FB0400007900F0010010BD17
:10C0E000DC6E0020064B4FF45A7202FB003050F811
:10C0F000063F0B60838882798A718B80704700BF0E
:10C10000DC6E002008B5044B4FF45A7202FB00307D
:10C11000103001F025FC08BDDC6E00202DE9F04157
:10C120004FF45A7505FB00F5194F05F110043C4416
:10C1300092B2204601F040FC0646204601F02AFC5F
:10C140003F2802D83046BDE8F08107EB0508002003
:10C1500098F8031002F01EFD0028F3D0204601F0ED
:10C1600019FC3F280BD905F53A7298F803103A44A8
:10C170004023002002F072FD3046BDE8F08198F8BF
:10C180000310002002F03EFD3046BDE8F08100BF04
:10C19000DC6E0020034B4FF45A7202FB003010306B
:10C1A00001F07CBCDC6E00202DE9F041044601F07A
:10C1B00073FD10B90020BDE8F08101F075FD064661
:10C1C0000028F7D14FF45A71DFF8608001FB04F4C6
:10C1D00004F12C054544284601F0C2FB0028E9D0B3
:10C1E00008EB04073046B97802F0D4FC0028E1D00F
:10C1F00004F54A74444428462146402201F0DCFB01
:10C20000054660B1B978224630462B4602F026FD3D
:10C2100040B9054B1B68DB07CCD500BECBE7B9782E
:10C2200002F0F0FC2846C6E7F0ED00E0DC6E0020EE
:10C2300038B50C4B4FF45A7404FB00342C3492B2D2
:10C240000546204601F06AFC034620461C4601F0E4
:10C2500087FB3F2801D8204638BD2846FFF7A4FFBA
:10C26000204638BDDC6E002008B5044B4FF45A72EE
:10C2700002FB00302C3001F08DFB08BDDC6E00208D
:10C28000F0B51C4C83B000214FF45A7220460125B2
:10C290000E4612F0D7FAFF234FF4424204F1480150
:10C2A0006371E2802B460827009604F110004FF4DA
:10C2B000807227732581668101F016FB2B464FF4AF
:10C2C000807204F5A471009504F12C0001F00CFBC0
:10C2D00004F5127128460AF0E1FB04F526710346C5
:10C2E0002846C4E909630AF0D9FBC4E9100603B083
:10C2F000F0BD00BFDC6E002010B5094B002203F139
:10C300002C0403F110001A601A7101F07DFC204624
:10C3100001F07AFC20460121BDE8104001F09CBCF0
:10C32000DC6E00202DE9F0414B79022B82B002D166
:10C330008B79022B04D00025284602B0BDE8F0819D
:10C34000314FBB782BB1314B1B68DB07F3D500BEF7
:10C35000F1E78B783B700C780C4406466178242911
:10C360004FF009050BD1082A02D80FE0AA420DD3DD
:10C3700023781C442B44617824299DB2F6D00529EA
:10C380001BD0042902D163790A2B28D0204801F060
:10C3900001FB3F28D0D9F978002002F0FBFB0028F0
:10C3A000CAD01B4801F0F6FA3F28F97813D9194A88
:10C3B0004023002002F052FCBEE72146304602F046
:10C3C000C9FB0028BFD0A3787B7023781C442B4482
:10C3D00061789DB2D5E7002002F014FCACE70E4A6C
:10C3E00094F800800192022301320092304604EB5F
:10C3F00008011A4602F03AFB0028A4D005F10E030A
:10C4000018FA83F39DB2C1E7DC6E0020F0ED00E086
:10C41000EC6E0020C4710020DE6E002038B5137869
:10C4200003F06003202B0CD1264C938825789D4285
:10C4300007D15378203B032B03D8DFE803F009151D
:10C440001E04002038BD71B3022931D0012038BD4F
:10C4500061B10229FAD11C4B002BF7D01B490020F7
:10C46000AFF30080012038BD0029EFD1114607232A
:10C47000164A02F073FC012038BDA1B10229E5D1B2
:10C480005588257105F00104114884F0010101F07F
:10C49000E3FB104B002BD9D0C5F34002214600200E
:10C4A000FFF77CFAD2E7114602F03EFC012038BDCE
:10C4B000094B002BCAD051880020AFF30080012027
:10C4C00038BD00BFDC6E002000000000E26E0020DE
:10C4D000086F00209DB90200000000002DE9F04720
:10C4E000574DEA788A420C4607461E465CD19AB2FE
:10C4F00005F53A7105F1100001F010FB514BD3B175
:10C500006B79FF2B17D0B6B105F2E72808EB060AC6
:10C51000A8F2D72902E0D0450DD06B7918F8012F89
:10C520009A42F8D1484601F02BFA0028F3D16979F4
:10C53000AFF30080EFE7444B23B1444801F020FA09
:10C54000002870D0414801F025FA3F2805D9E97844
:10C55000002002F01FFB002858D1AB789C4203D08A
:10C5600001242046BDE8F087394B13B10020AFF31A
:10C57000008001F091FB20BB364801F0F1F9002862
:10C58000EED1002EECD016F03F06E9D1A97838465E
:10C5900002F000FB04460028E2D0A9783846334672
:10C5A000324602F05BFBDCE7AB788B42DCD02A4BF7
:10C5B0001C6814F00104D4D000BE00242046BDE85D
:10C5C000F08701F071FB04460028D5D1214801F025
:10C5D000C7F90028D0D0A978204602F0DBFA00285D
:10C5E000CAD01E494022A1F53F7001F0E5F903468B
:10C5F00008B31A4AA978204602F030FB0028AFD1D0
:10C60000154B1B68DB07B7D500BEB5E70F4801F037
:10C61000C1F93F280AD94023114AE978002002F0E5
:10C620001DFBAB789AE7AFF300808BE7E978002039
:10C6300002F0E8FA91E7A97802F0E4FA9CE700BF7B
:10C64000DC6E00200000000000000000EC6E002006
:10C6500000000000086F0020F0ED00E004720020F0
:10C66000C471002002488C22002112F0EBB800BFF8
:10C670004472002002488C22002112F0E3B800BF6F
:10C68000447200202DE9F0414B79032B82B011D187
:10C690000F79C7EBC7051235ADB295420C4604D8E9
:10C6A000DFF89C8098F8011049B1234B1B68DA072A
:10C6B00000D500BE0025284602B0BDE8F08194F800
:10C6C00000C004EB0C0292F801E0BEF1210FECD1A6
:10C6D000C8F8882014F80C1008F1010E08F1020CBB
:10C6E0001144CDE900CE3A46064602F0BFF90028D3
:10C6F000DBD0A37998F80210012B04BFE37988F806
:10C7000003300122D8F8883088F80420A278B3F8E2
:10C71000073088F80020A8F806300029CBD0074A57
:10C720003046402302F09AFA0028C4D1024B1B681D
:10C73000DB07C0D500BEBEE7F0ED00E08C72002044
:10C7400044720020F0B51446127802F01F05012D46
:10C7500083B00FD10B467149A78891F800C0FFB292
:10C76000BC4507D112F06002064606D183BB627851
:10C77000062A30D0002003B0F0BD202AFAD162781A
:10C78000013A0A2AF6D801A050F822F061C8020046
:10C790004DC8020039C8020075C7020075C7020003
:10C7A00075C7020075C7020075C7020021C80200E4
:10C7B000FBC70200B9C7020063B3022B08D163882C
:10C7C000574ADBB20B711AB119460020AFF3008053
:10C7D000012003B0F0BD6288120A212A65D0222A06
:10C7E000C8D11846FFF7D6FA4C490246CB883046E6
:10C7F000214602F0B3FA2846BDE7002BE8D1628853
:10C800004848120A4A7128B111461846AFF3008011
:10C810000028AFD02146304602F086FA0120AAE770
:10C82000002B4ED1E388402BA4D83F4A2146304606
:10C8300002F094FA01209EE7002BC9D13B4A214621
:10C840003046012302F08AFA012094E7002BBFD181
:10C85000374A21463046012302F080FA01208AE758
:10C86000002BB5D1E5886088402D4FEA10222F4675
:10C8700028BF402710F0FF003ED0012D46D9013FD0
:10C8800008722C49BFB201250B46009701460020D3
:10C89000FFF788FA2B189BB28BBB274A1268D20786
:10C8A0007FF568AF00BE184665E7D1F88820002AFA
:10C8B0003FF460AF1378214603B0BDE8F04002F0CA
:10C8C0004DBA022B84D1E5886388402D2C4628BFC1
:10C8D000402413F0FF004FEA132205D0012D03D9A5
:10C8E00091F84830834214D00F4B00940146002049
:10C8F000FFF76CFA01203EE710491D46C4E70F4AD6
:10C900002146304602F02AFA012034E70B491D4641
:10C91000BAE7013C0A4BA4B2E7E700BF447200202B
:10C9200000000000000000008C720020487200200F
:10C93000497200204D720020F0ED00E04C720020A2
:10C940008D72002030B51C4CA2788A4283B00CD185
:10C950006178914217D1194A22B11949DAB20020FF
:10C96000AFF30080012003B030BD62788A42F2D07C
:10C97000144B1B68DB0703D500BE002003B030BD9D
:10C98000002003B030BD00229BB211460546009343
:10C99000104604F14803FFF719FAA178284640230E
:10C9A00004F1480202F05AF90028DBD1054B1B685C
:10C9B000DA07E5D500BED6E744720020000000008B
:10C9C0004C720020F0ED00E070B500F12C0504463B
:10C9D000284600F0C5FF08B9002070BD617800202E
:10C9E00002F0D8F80028F7D004F50A762846314638
:10C9F000402200F0E1FF054660B10346617832460F
:10CA0000002002F02BF940B9054B1B68DB07E3D58A
:10CA100000BE70BD617802F0F5F8284670BD00BF19
:10CA2000F0ED00E030B5164C83B000210D464FF418
:10CA30001A72204611F006FF04F1480104F11000BB
:10CA400000950123802200F04FFF802204F1C801ED
:10CA50000123009504F12C0000F046FF04F5A471B9
:10CA600001200AF01BF804F5CC7103460120C4E94B
:10CA700009530AF013F8C4E9100503B030BD00BF34
:10CA80007894002010B5084C002304F11000C4E98C
:10CA90000033C4E9023301F0B7F804F12C00BDE81B
:10CAA000104001F0B1B800BF789400202DE9F043A8
:10CAB0004B79012B83B002D18B79012B04D0002557
:10CAC000284603B0BDE8F083CB79002BF7D10B7873
:10CAD000CC1806466578242D99B20BD1914202D923
